:020000040000FA
:100000000C9497180C94BF180C94BF180C94BF183C
:100010000C94BF180C94BF180C94B22C0C94832C25
:100020000C94BF180C94BF180C94BF180C94BF18F4
:100030000C94BF180C94BF180C94BF180C94BF18E4
:100040000C941C2B0C94BF180C94EA2A0C94C42A10
:100050000C94BF180C94A82C0C94BF180C94BF18C7
:100060000C94682B0C94BF180C94662B0C94662B84
:100070000C94662B0C94662B0C94662B0C94662BBC
:100080000C94662B0C94662B0C94662B0C94662BAC
:100090000C94662B0C94662B0C94662B0C94662B9C
:1000A0000C94662B0C94662B0C94662B0C94662B8C
:1000B0000C94662B000000000C00010000042210CC
:1000C00006DF11000B0C1002E0220018211A01E1DA
:1000D000850017291A01DEFB0027222A01E0A10171
:1000E0001C221F02E01802040C0902E01E020A2C66
:1000F0001003DF55020A2C1002DF8C020E0E1202D2
:10010000DFA50217161B02EBE502040C0D04FCEB45
:10011000020B041002F2F10204050C04FCF4020DBF
:10012000230D00DF2D0316221A02E08B030B211A88
:1001300005E0B90316211A02E0140417221A01E09F
:10014000760417211A01E0D50416221A02E03305BD
:1001500016221A02E0910515211A02E0E80516227E
:100160001A02E0460615221A02E0A00604190C0441
:10017000E8AD0604200C04E8BD0617171B02EA00D0
:1001800007170C1B02F0230717171B02EA66071458
:10019000231A04DEBE072B2A3002DEA0081E221F0F
:1001A00001DF200919221F04DF8B091D242102DE33
:1001B0000E0A1B222104DF810A18221E04DFE70A2F
:1001C00016221C04DF450B1F242402DED10B1A2249
:1001D0002204DF400C04220D05DF510C1323190209
:1001E000DFA50C1B222004DF180D15221A04DF7274
:1001F0000D20222804DFFA0D1A222204DF690E21C5
:10020000242502DEFE0E18221F04DF640F2126259E
:1002100002DE01101A222104DF70101B241F02DEEF
:10022000EA101A221E02DF59111A232204DFCB1111
:100230001D221E01DF47122A222C01DFFA121D2285
:100240001F01DF76131E222001DFF6131B221D0182
:10025000DF6914082C0D03DF95140D230D00DFCE8C
:1002600014082C0D01DFFA1412121602E023151CDB
:10027000021AFF072A150A070C01DE3315181B1A8C
:1002800001E7841516231A03DFE515151B1801E78E
:100290002C1617231A01DF9116161B1901E7DC161D
:1002A0000A220D01DF071716241A01E76A17132225
:1002B0001903DFBB1704220A03DFCC17082C0B003D
:1002C000DFF81715221803DF521804220A03DF6330
:1002D00018201A2603E7CB18141A1903E70C19176C
:1002E0001B1901E75A1916231A03E7BB1917231A1A
:1002F00001E7201A0C1A1003E7471A141B1701E72D
:100300008B1A0A200D01E2B31A141A1903E8F41A21
:1003100017191700E83C1B22192200E8A71B161921
:100320001600E8EC1B16231600E84D1C14191701E3
:10033000E88C1C0B2C1002DFC91C032C0C04DFDA28
:100340001C0B2C1002DF171D13071802EDFFFFFF17
:10035000FFFFFFFFFFFFFF766666000FFFFFF1FE66
:100360003FC7F8FF1FE3FC7F8FF1EC19833060007B
:10037000703C00703C00F03800F03800F07800E08D
:100380007800E07801E07001E0707FFFFF7FFFFF01
:100390007FFFFF03C0E003C0E003C0E00381E00390
:1003A00081E00381E00781C00781C0FFFFFEFFFFFE
:1003B000FEFFFFFE0F03800F03800F07800E0780F4
:1003C0000E07801E07001E07001E07001C0F001CE2
:1003D0000F0000380001FC001FFE007FFE01FFFE41
:1003E00007E73E0F8E3C3E1C3C783838F07071E0D9
:1003F000E0E3C1C00783800F87000F8E001FDC0081
:100400001FF8001FFF000FFF8007FF8003FF80071A
:100410001F800E1F001C1F00381FC0703F80E07F30
:1004200081C0FF0381EF07079F0E0F3E1C3E3F393F
:10043000F83FFFE03FFF000FF800038000070000D7
:100440000E00001C000038000000001C000FC0005F
:1004500078003FE000E001FFE0038003FFE00700D9
:100460000F87C01C003C03C03800700380E000E030
:100470000703C001C00E070003801C1E0007807820
:10048000380007C3E0F00007FFC1C0000FFF07807E
:10049000000FFC0E000007E03800000000700000B4
:1004A0000001C03F00000380FF80000E07FF8000B6
:1004B0003C0FFF8000703E1F0001E0F00F00038141
:1004C000C00E000F03801C001C07003800780E00CF
:1004D0007000E01E01E003801F0F8007001FFF0077
:1004E0001C003FFC0038001FF000E0001F80007E71
:1004F00000001FF00003FF80007FFC0007C3C00066
:10050000F81E000F00E000F00E000F00E000F00EFB
:10051000000781E0007C3C0003EF80001FF0000139
:10052000FE00001F800003FC0000FFE0001F1E070C
:1005300083E0F0787C0F8F87807CF0F003FF0F0062
:100540001FE0F000FE0F000FC0F0007E0F800FF0E4
:100550007C01FF07F07DF83FFF8FC1FFF07E0FFEAB
:1005600003E03F8000FFFFFFFFF66601C070381C0C
:100570000703C0E0781C0703C0E0781E0781E07025
:100580003C0F03C0F03C0F03C0F03C0F03C0701ED3
:100590000781E0380F03C0701E0380E01C0700E0F5
:1005A0001807E0380701C0380F01C0780E0380F04B
:1005B0001C0701E0781E0380F03C0F03C0F03C0FE5
:1005C00003C0F03C0F0781E0781E0703C0F0381E1F
:1005D0000701C0E0381C06038003000C003000C097
:1005E000631BFFFFFFC3F007803F01CE073C38705D
:1005F000210000380000700000E00001C00003800E
:10060000000700000E00001C00003801FFFFFFFF84
:10061000FFFFFFFFFFFFFFE00700000E00001C00D0
:1006200000380000700000E00001C00003800007F7
:100630000000FFFFF33336ECFFFFFFFFFFF0FFFF8B
:10064000F0003801C00C00E007003003801C00C03F
:1006500006007003801801C00E006003003801809E
:100660000C00E007003003801C00C006007003800F
:100670001801C00E00600700380000FC000FFC00ED
:10068000FFFC07FFF81F87E0F807C3C00F1F003EFD
:10069000780079E001E78007BC000FF0003FC00060
:1006A000FF0003FC000FF0003FC000FF0003FC0050
:1006B0000FF0003FC000FF0003DE001E780079E06D
:1006C00001E7C00F8F003C3E01F07C1F81FFFE035D
:1006D000FFF003FF0003F00000601C0380F03E3FCA
:1006E000FFFFFFFFE03C0780F01E03C0780F01E032
:1006F0003C0780F01E03C0780F01E03C0780F01E2D
:1007000003C0780F01E001FE001FFE01FFFE0FFF96
:10071000FC3F03F9F003E78007FE001FF0003FC035
:1007200000FF0003C0000F00007C0001F0000F80FC
:10073000007C0007F0007F8007F8003FC003FC004A
:100740001FC000FC0007C0003E0000E00007800062
:100750001C0000700003FFFFFFFFFFFFFFFFFFFF14
:10076000FC00FE000FFF803FFF80FFFF83F01F872C
:10077000C01F1F001F3C001E78003CF000780000E6
:10078000F00001E0000780007F001FFC003FE00058
:100790007FE000FFF00007F00003E00003E000034B
:1007A000C0000780000FF0001FE0003FE000FBC02A
:1007B00001E7C007C7E03F0FFFFE0FFFF807FFC0CC
:1007C00003FC000001C0000780001F00007E000045
:1007D000FC0003F8000FF0003FE0007BC001E78061
:1007E000078F000F1E003C3C00F07803C0F007812B
:1007F000E01E03C0780781E00F03C01E0F003C1FFE
:10080000FFFFFFFFFFFFFFFFFFFFFE000780000F5E
:1008100000001E00003C0000780000F00001E00035
:1008200003C01FFFF07FFFC1FFFF07FFFC3C00007C
:10083000F00003C0000F00003C0000F00003C00007
:100840001F3F807BFF81FFFF07FFFE1F80FC7801B9
:10085000F80003E00007C0000F00003C0000F000BB
:1008600003C0000F00003FC000FF80079E001E7CF9
:1008700000F1FC0FC3FFFE07FFF00FFF8007F00041
:1008800000FE000FFE007FFC03FFF81F83F0F80757
:10089000C3C00F8F001E780079E0000700003C0005
:1008A00000F0FE03CFFE0F7FFE3FFFFCFF03F3F0DF
:1008B00003EF8007BE001FF0003FC000FF0003FCF5
:1008C000000F70003DC000F780079F003E3E00F81B
:1008D000FC0FC1FFFE03FFF007FF8007F800FFFFDA
:1008E000FFFFFFFFFFFFFFFFF0000700007800079A
:1008F0008000380003C0003C0001C0001E0000E082
:10090000000F00007000078000380003C0001C00CA
:1009100001E0000E0000F000078000380003C00076
:100920001E0000E0000F0000780003C0001C000162
:10093000E0000F000001FE001FFE00FFFC07FFF8B3
:100940003F03F1F003C7C00F9E001E780079E0015D
:10095000E7800F8F003C3F03F07FFF807FF803FFAD
:10096000F01FFFE0FC0FC7C00F9E001EF8007FC005
:1009700000FF0003FC000FF0003FC000FF8007DE17
:10098000001E7C00F8FC0FC3FFFF07FFF807FF8085
:1009900007F80001FC003FF803FFE03FFF83F07E13
:1009A0003E00F1E007CF001EF000778003BC001F7F
:1009B000E000FF0007F8003FE003EF001F7C01F9B3
:1009C000F83FCFFFFE3FFEF0FFE780FC3C0001E078
:1009D000000E0000F000079E003CF003C7C03E1F61
:1009E00003E0FFFE03FFE00FFE001FC000FFFFF06B
:1009F00000000000000000FFFFF0FFFFF00000001B
:100A000000000000FFFFF33336EC00000000001C84
:100A10000000F80007F0007FC003FC003FE001FF8A
:100A2000000FF000FF8003F80007C0000FE0000F88
:100A3000F00007FC0003FE0000FF00007FC0003F45
:100A4000E0000FF00007E00001C0000080FFFFFFA2
:100A5000FFFFFFFFFFFFFFFFF000000000000000AE
:100A600000000000FFFFFFFFFFFFFFFFFFFFFFF0A1
:100A7000800001C00003F00007F80003FC0001FF44
:100A80000000FF80003FC0001FF00007F80003F8DF
:100A90000001F00007E0003FC003FC001FE001FF81
:100AA000000FF000FF8007FC000FC0001E000030A8
:100AB00000000003F800FFF01FFF83FFFC7E0FE73C
:100AC000803E7801FF000FF000FF000FF000F00003
:100AD0001F0001E0003E0007C000F8003F0007E0F3
:100AE000007C000F8001F0001E0001E0001E0001EC
:100AF000E0001E000000000000000000000001E017
:100B0000001E0001E0001E0001E00000003FE000C8
:100B100000007FFFC000003FFFFE00000FFFFFF05E
:100B20000007FC03FF0001FC000FF0007E00007FC7
:100B3000001F000003F007C000003F01F0000003A9
:100B4000F03C007E003E0F003FE3C3E3E01FFE7871
:100B50003C7807E1FF07DF01F01FC0FBC07C01F814
:100B60000F780F003F01EF03C007C03FC07800F8C7
:100B700007F80F001F00FF03C003C01FE0780078D4
:100B800007FC0F001F00F781E003C01EF03C007857
:100B9000079E07801F01F3E0F807C03C3C0F81F877
:100BA0000F8781F87F87E0F81FFEFFF80F01FF1F16
:100BB000FC01F00F80FE001F0000000003F00000A9
:100BC00000003F0000000003F8000000003F80002C
:100BD000000003FE007C00001FFFFF800001FFFFFC
:100BE000F800000FFFFC0000001FF80000000FC01D
:100BF00000007F000001FC000007F800003FE0005B
:100C000000F7C00003DF00001F3C000078F800017F
:100C1000E3E0000F8780003C1F0001F07C000780AC
:100C2000F0001E03E000F80F8003C01E000F007CE0
:100C3000007C01F001E003C007FFFF803FFFFE00E2
:100C4000FFFFFC07FFFFF01F0007C078000F83E0E5
:100C5000003E0F8000F83C0001F1F00007C7C00023
:100C60001F1E00003EF80000FBE00001E0FFFF80D7
:100C70007FFFF03FFFFE1FFFFF0F000FC78001E364
:100C8000C000F9E0003CF0001E78000F3C00079E19
:100C900000078F0003C78007C3FFFFC1FFFFC0FF2E
:100CA000FFF87FFFFE3C000F9E0003EF0000F7807F
:100CB000003FC0001FE0000FF00007F80003FC0039
:100CC00001FE0001FF0001F78001FBFFFFF9FFFFBC
:100CD000F8FFFFF87FFFF000001FE00007FFE000D3
:100CE0007FFFC00FFFFF00FE01F807C003E07C009C
:100CF0000F87C0003C3C0001E3E000079E00003C81
:100D0000F000000780000078000003C000001E0013
:100D10000000F00000078000003C000001E000003F
:100D20000F00000078000003C000000F00000F78E3
:100D300000007BC00007DF00003C780001E3E0001A
:100D40001F0F8001F03E001F81FE03F807FFFF80A8
:100D50000FFFF8003FFF00003FC000FFFF801FFFB4
:100D6000FE03FFFFE07FFFFE0F000FE1E0007E3C8F
:100D70000007E780007CF00007DE00007BC0000F6A
:100D8000780001EF00001FE00003FC00007F8000FE
:100D90000FF00001FE00003FC00007F80000FF0058
:100DA000001FE00003FC0000F780001EF00003DEDF
:100DB0000000FBC0003E78000FCF0003F1E001FC13
:100DC0003FFFFF07FFFFC0FFFFF01FFFF000FFFF27
:100DD000FEFFFFFEFFFFFEFFFFFEF00000F0000041
:100DE000F00000F00000F00000F00000F00000F063
:100DF0000000F00000F00000F00000FFFFFEFFFF29
:100E0000FEFFFFFEFFFFFEF00000F00000F000001C
:100E1000F00000F00000F00000F00000F00000F032
:100E20000000F00000F00000FFFFFFFFFFFFFFFFEA
:100E3000FFFFFFFFFFFFFFFFFFFFFFFFFFFFFFF0D1
:100E40000003C0000F00003C0000F00003C0000FD2
:100E500000003C0000F00003C0000F00003FFFFC5A
:100E6000FFFFF3FFFFCFFFFF3C0000F00003C000D7
:100E70000F00003C0000F00003C0000F00003C0029
:100E800000F00003C0000F00003C0000F00003C0B1
:100E90000000000FF80000FFFE0007FFFF001FFF2B
:100EA000FF007F807F01F8003F07E0001F0F8000F8
:100EB0001E3E00003E7800003DF0000003C0000030
:100EC000078000001F0000003C00000078000000C8
:100ED000F0000001E000FFFFC001FFFF8003FFFF03
:100EE0000007FFFE000003FE000007BC00000F78B3
:100EF00000001EF800007DF00000F9F00003F3F0A0
:100F00000007E3F0001FC3F000FF83FC07EF03FFBF
:100F1000FF9E03FFFE1C01FFF038007F8000F00001
:100F200003FC0000FF00003FC0000FF00003FC00C6
:100F300000FF00003FC0000FF00003FC0000FF00B6
:100F4000003FC0000FF00003FC0000FF00003FFF67
:100F5000FFFFFFFFFFFFFFFFFFFFFFFFC0000FF0DE
:100F60000003FC0000FF00003FC0000FF00003FC86
:100F70000000FF00003FC0000FF00003FC0000FF76
:100F800000003FC0000FF00003FC0000F0FFFFFF77
:100F9000FFFFFFFFFFFFFFFFFFFFFFFFFFFF00015E
:100FA000E0003C00078000F0001E0003C000780055
:100FB0000F0001E0003C00078000F0001E0003C0AD
:100FC0000078000F0001E0003C00078000F0001EE8
:100FD0000003C0007F800FF001FE003FC007F80152
:100FE000FF803EF00F9F83F1FFFC3FFF01FFC00F2A
:100FF000E000F00007DE0001F3C0007C78001F0F66
:101000000007C1E001F03C007C07801F00F007C032
:101010001E01F003C07C00781F000F07C001E1F043
:10102000003C7E00079FE000F7FE001FF7C003FCB6
:101030007C007F07C00FC0F801F00F803C00F8076C
:10104000801F80F001F01E001F03C003F078003EF7
:101050000F0003E1E0003E3C0007C780007CF00089
:1010600007DE0000FCF0000780003C0001E0000FFC
:101070000000780003C0001E0000F0000780003C64
:101080000001E0000F0000780003C0001E0000F027
:10109000000780003C0001E0000F0000780003C062
:1010A000001E0000F0000780003C0001E0000F007F
:1010B00000780003FFFFFFFFFFFFFFFFFFFFC0FC03
:1010C00000003FFC00003FFE00007FFE00007FFEAE
:1010D00000007FFF0000FFFF0000FFF70000EFF7B8
:1010E0008001EFF78001EFF3C001CFF3C003CFF32E
:1010F000C003CFF1E0038FF1E0078FF1E0078FF03D
:10110000F00F0FF0F00F0FF0F00F0FF0781E0FF050
:10111000781E0FF0781E0FF03C3C0FF03C3C0FF0B7
:101120003C3C0FF01E780FF01E780FF00E780FF099
:101130000FF00FF00FF00FF007F00FF007E00FF0D7
:1011400007E00FF003E00FF80003FF0000FFC0000E
:101150003FF8000FFE0003FFC000FFF8003FDE0075
:101160000FF7C003FCF800FF1E003FC7C00FF0F0F0
:1011700003FC3E00FF07C03FC0F00FF03E03FC073A
:10118000C0FF00F03FC03E0FF00783FC01F0FF00FE
:101190003E3FC0078FF001F3FC003EFF0007BFC0D9
:1011A00001FFF0003FFC000FFF0001FFC0003FF017
:1011B000000FFC0001F0000FF800003FFF80007FEF
:1011C000FFF0007FFFFC007F80FF007E000FC07EED
:1011D0000003F03E0000F83E00003E1E00000F1F1E
:1011E000000007CF000001E7800000F7C000007F8B
:1011F000C000001FE000000FF0000007F80000032F
:10120000FC000001FE000000FF0000007F800000E5
:101210003FC000003EF000001E7800000F3E0000BE
:101220000F8F00000787C00007C1F00007C0FC0057
:1012300007E03F0007E00FF01FE003FFFFE000FFC3
:10124000FFE0001FFFC00001FF0000FFFF80FFFF65
:10125000F0FFFFF8FFFFFCF000FEF0003EF0001F83
:10126000F0000FF0000FF0000FF0000FF0000FF093
:10127000000FF0001FF0003EF000FEFFFFFCFFFF3C
:10128000F8FFFFF0FFFFC0F00000F00000F00000EA
:10129000F00000F00000F00000F00000F00000F0AE
:1012A0000000F00000F00000F00000F00000F0008E
:1012B00000000FF800003FFF80007FFFE0007FFF8D
:1012C000FC007F80FF007E000FC07E0003F03E0028
:1012D00000F83E00003E1E00000F1F000007CF0078
:1012E0000001E7800000F7C000007FC000001FE0A1
:1012F00000000FF0000007F8000003FC000001FEF2
:10130000000000FF0000007F8000003FC000003EA2
:10131000F000001E7800000F3E00000F8F000387D2
:1013200087C003E7C1F000FFC0FC003FE03F000FB3
:10133000E00FF01FF003FFFFFC00FFFFFF001FFFA7
:10134000C7C001FF01E00000007000000010FFFFB7
:10135000E03FFFFE0FFFFFC3FFFFF8F0003F3C0040
:1013600007CF0000FBC0001EF00007BC0001EF002B
:10137000007BC0001EF00007BC0003CF0001F3C0DB
:1013800000F8FFFFFC3FFFFE0FFFFFC3FFFFF8F079
:10139000003F3C0003CF0000FBC0001EF00007BC74
:1013A0000001EF00007BC0001EF00007BC0001EF51
:1013B00000007BC0001EF00007FC0001F0007FC0B1
:1013C000007FFF001FFFF00FFFFF81F807F07C0098
:1013D0001F0F0001E3E0003E780003CF000079E03A
:1013E00000003C000007C000007E00000FF000007D
:1013F000FFE0000FFFC0007FFF0001FFF80003FFC8
:10140000800007F800003F800001F000001F00008E
:1014100001FE00003FC00007F80000F780003EF822
:1014200000079F8001F1FE01FC1FFFFF01FFFFC0CD
:101430000FFFE0003FE000FFFFFFFFFFFFFFFFFFA8
:10144000FFFFFFFF001E000007800001E0000078A2
:1014500000001E000007800001E000007800001E70
:10146000000007800001E000007800001E00000777
:10147000800001E000007800001E000007800001ED
:10148000E000007800001E000007800001E000007E
:101490007800001E000007800001E00000780000D6
:1014A0001E0000078000F00003FC0000FF00003F6A
:1014B000C0000FF00003FC0000FF00003FC0000F61
:1014C000F00003FC0000FF00003FC0000FF000032D
:1014D000FC0000FF00003FC0000FF00003FC000014
:1014E000FF00003FC0000FF00003FC0000FF000001
:1014F0003FC0000FF00003FC0000FF00007DE00093
:101500001E7C000F9F8007E3F807F07FFFF80FFFB6
:10151000FC00FFFC000FF800F80000F7C0000F9E71
:1015200000007CF80003C7C0003E1E0001F0F80078
:101530000F07C000F81E0007C0F8003C07C003E01A
:101540001E001F00F800F003C00F801E007C00F892
:1015500003C003C01E001F01F000F80F0003C07895
:10156000001F078000F83C0003C1E0001F1E0000C0
:1015700078F00003C780001F7800007BC00003DE06
:1015800000001FE000007F000003F800001F800043
:10159000007C0000F8003F0007FE000FC001FF8044
:1015A00003F0007DE000FC001E7C007F800F9F00A8
:1015B0001FE003E7C007F800F8F001FF003C3E0021
:1015C000F3C01F0F803CF007C3E00F3C01F0780729
:1015D000C780781F01E1E01E07C078780F80F01EF9
:1015E0001E03E03C0F83C0F00F83C0F03C03E0F02B
:1015F0003C1F00783C0F87C01E1E01E1E00787807A
:10160000787801F1E01E1E003CF803CF800F3C000B
:10161000F3C003CF003CF000FBC00FBC001FF00183
:10162000FF0007F8007F8001FE001FE0007F8003BD
:10163000F8000FC000FE0003F0003F0000FC000FA8
:10164000C0003F0001F0007C0001F3F0001F8F801C
:1016500000F83E000F80F800F807C007C01F007CAC
:10166000007C07C003E03E000F83E0003E3E000127
:10167000F1F00007DF00001FF00000FF800003F81A
:1016800000000F800000FE00000FF000007FC0008F
:1016900007DF00007C780003E3E0003E0F8003E0FA
:1016A0003E001F01F001F007C01F003F00F800F8E6
:1016B0000F8003E0F8001F8FC0007C7C0001F7C0A2
:1016C000000FC0FC0000FDF00003E7E0001F0F80EA
:1016D000007C1F0003E07C001F00F8007C01F00389
:1016E000E007C00F800F807C001E01E0007C0F80AF
:1016F00000F87C0003E1E00007CF80000F3C000011
:101700003FF000007F800000FC000003F0000007B5
:101710008000001E00000078000001E0000007804B
:1017200000001E00000078000001E00000078000BB
:10173000001E00000078000001E0000007800000AB
:101740001E00003FFFFFC7FFFFF8FFFFFF1FFFFF67
:10175000E000007C00001F000007E00001F800002E
:101760007E00000F800003E00000FC00003F00004E
:101770000FC00001F000007C00001F800007E000A7
:1017800001F800003E00000F800003F00000FC00A4
:10179000001F000007C00001F000007E00001F8055
:1017A0000003E00000F800003FFFFFFFFFFFFFFF26
:1017B000FFFFFFFFFFFCFFFFFFFFF0F0F0F0F0F096
:1017C000F0F0F0F0F0F0F0F0F0F0F0F0F0F0F0F019
:1017D000F0F0F0F0F0F0F0F0F0F0F0F0F0F0FFFFEB
:1017E000FFFFE007001800E007001800E0070018FE
:1017F00000C007003800C007003800C006003800ED
:10180000C006003801C006003801C006003001C023
:101810000E003001C00E003001C00EFFFFFFFF0FB1
:101820000F0F0F0F0F0F0F0F0F0F0F0F0F0F0F0FC8
:101830000F0F0F0F0F0F0F0F0F0F0F0F0F0F0F0FB8
:101840000F0F0FFFFFFFFF01E00078003F000FC008
:1018500007F801CE0073803C700E1C078781C0E042
:10186000703838070E01C78079C00E7003B8007059
:10187000FFFFFFFFFFFFFFFC0F01E03C0700E01C44
:1018800001FF000FFFC01FFFE03FFFF07E03F87C69
:1018900000F87800780000780000780000780000F8
:1018A000F80003F800FFF80FFFF83FFE787F80781C
:1018B000FC0078F80078F00078F000F8F000F8F814
:1018C00003F87E0FF87FFF7F3FFE3F1FFC3F07E0DE
:1018D0001FF00003C0000F00003C0000F00003C038
:1018E000000F00003C0000F07E03C7FE0F7FFC3DB0
:1018F000FFF8FF07F3F807CFC00FBE001EF8007B0C
:10190000E001FF0003FC000FF0003FC000FF0003F8
:10191000FC000FF0003FC001FF8007BE001EFC006E
:10192000FBF807CFF07F3BFFF8E7FFC38FFE000F08
:10193000E00000FE003FFC03FFF03FFFC3F03F1F4D
:1019400000F9F003CF000F780007C0003C0001E071
:10195000000F0000780003C0001E0000F0000780A8
:10196000001E001EF000F7C00F9F00F8FC0FC3FF21
:10197000FC0FFFC03FFC007F0000001E00003C0089
:1019800000780000F00001E00003C0000780000FB5
:1019900001FC1E0FFE3C3FFF78FFFFF3F83FE7C05E
:1019A0001FDF001FBE001F78003FF0007FC0007FD8
:1019B0008000FF0001FE0003FC0007F8000FF000AC
:1019C0001FF0007DE000FBC001F7C007E7C01FCF9C
:1019D000E0FF8FFFF70FFFCE0FFF1C07F80000FEA0
:1019E000000FFE00FFFC07FFF81F83F0F807C7C0D9
:1019F0000F9E001E78007BC000FF0003FC000FFF5D
:101A0000FFFFFFFFFFFFFFFC0000F00003C0000727
:101A100080001E001E7C0078F803E3F03F07FFF80B
:101A20000FFFE01FFE000FE00003C3F0FC7F1F0765
:101A300081E0781E3FFFFFFF1E0781E0781E0781CF
:101A4000E0781E0781E0781E0781E0781E0781E0BC
:101A5000781E078000FC001FF8F0FFFBC7FFFF3F68
:101A600083FCF807F7C00FDE001F78007FE000FF5F
:101A70000003FC000FF0003FC000FF0003FC000F5C
:101A8000F0003FC000F78007DE001F7C00FCF80775
:101A9000F3F83FC7FFEF0FFF3C1FF8F01F83C000B4
:101AA0000F000079E001E7C00F8F80FC3FFFF07F5F
:101AB000FF80FFFC007F80F0001E0003C000780064
:101AC0000F0001E0003C00078000F0FE1E3FE3CF66
:101AD000FF7BFFEFF0FFF807FF007FC00FF801FE6C
:101AE000003FC007F800FF001FE003FC007F800FED
:101AF000F001FE003FC007F800FF001FE003FC00FC
:101B00007F800FF001FE003CFFFFF0000FFFFFFFA2
:101B1000FFFFFFFFFFFFFFFFFF0F0F0F0F0F000083
:101B200000000F0F0F0F0F0F0F0F0F0F0F0F0F0FE3
:101B30000F0F0F0F0F0F0F0F0F0F0F0F0F0F0F0FB5
:101B40001FFFFEFEF8F0000780003C0001E0000FE0
:101B50000000780003C0001E0000F00007801F3C5A
:101B600001F1E01F0F01F0781F03C1F01E1F00F10B
:101B7000F0079F003DF801FFE00FFF807F7C03F13D
:101B8000F01F07C0F03E0780F83C03C1E01F0F00C4
:101B90007C7803E3C00F9E003CF001F78007C0FF94
:101BA000FFFFFFFFFFFFFFFFFFFFFFFFFFFFFFFF45
:101BB00000FC03F0E3FE0FFCE7FF1FFEEFFFBFFE9C
:101BC000FE0FF83FFC07F01FF803E00FF803E00FEB
:101BD000F003C00FF003C00FF003C00FF003C00FFD
:101BE000F003C00FF003C00FF003C00FF003C00FED
:101BF000F003C00FF003C00FF003C00FF003C00FDD
:101C0000F003C00FF003C00FF003C00FF003C00FCC
:101C1000F003C00FF003C00F007E0E1FF8E7FFCEE9
:101C2000FFFEEF07FFE01FFC01FF800FF800FF0041
:101C30000FF000FF000FF000FF000FF000FF000F9B
:101C4000F000FF000FF000FF000FF000FF000FF0AA
:101C500000FF000FF000FF000F00FE0007FF003F35
:101C6000FF80FFFF83F83F87C01F1F001F3C001E3F
:101C700078003DF0007FC0007F8000FF0001FE0083
:101C800003FC0007F8000FF0001FF0007DE000F3F8
:101C9000C001E7C007C7C01F0FE0FE0FFFF80FFF2E
:101CA000E00FFF8003F80000FE038FFE0E7FFC3B79
:101CB000FFF8FF87F3F807CFC00FBE001EF8007BC8
:101CC000E001FF0003FC000FF0003FC000FF000335
:101CD000FC000FF0003FC001FF8007BE001EFC00AB
:101CE000FBF807CFF07F3FFFF8F7FFC3C7FE0F07F2
:101CF000E03C0000F00003C0000F00003C0000F0DA
:101D00000003C0000F00000000FE0007FF1C3FFFA3
:101D100038FFFF73F83FE7C01FDF001FBE001F78CA
:101D2000003FF0007FC0007F8000FF0001FE000345
:101D3000FC0007F8000FF0001FF0007DE000FBC082
:101D400001F7C007E7C01FCFE0FF8FFFEF0FFFDEF7
:101D50000FFE3C07F0780000F00001E00003C00037
:101D60000780000F00001E00003C00007800FE1FEE
:101D7000E7FEFFFF8FC0F80F80F80F00F00F00F0B4
:101D80000F00F00F00F00F00F00F00F00F00F00F49
:101D900000F00F0001FC00FFF01FFF83FFFC3E0777
:101DA000E7C03E7801E78000780007C0007E0003AE
:101DB000FC001FFC00FFF803FFC003FE0003F0005F
:101DC0001F0000FF000FF000FF801F7E07E7FFFEEF
:101DD0003FFFC1FFF003FC001E0781E0781E078F64
:101DE000FFFFFFC781E0781E0781E0781E0781E0D2
:101DF000781E0781E0781E0781E0781FC7F0FC1F7E
:101E0000F000FF000FF000FF000FF000FF000FF0E8
:101E100000FF000FF000FF000FF000FF000FF000C8
:101E2000FF000FF000FF000FF000FF001FF001FFA8
:101E3000003FF807FFE0FF7FFF77FFE71FFC707EA2
:101E40000078003EF00079F000F1E003E3C007877E
:101E5000C00F07803C0F00781F01F01E03C03C0735
:101E6000807C1F00783C00F07801F1E001E3C003C2
:101E7000C78003DE0007BC000F70000FE0001FC02A
:101E8000003F00003E00007C00F803E0079E00FCDD
:101E900001E7803F0079F00FC03E3C07F00F0F01D3
:101EA000FE03C3C07F80F0781DE0781E0F381E0748
:101EB00083CF0781E0F3C1E03C38F0F00F1E1C3CFB
:101EC00003C7878F0071E1E3801E7079E007BC0EC5
:101ED0007801EF03DE003BC0F7000FE03FC003F8DE
:101EE00007F0007E01F8001F807E0007C01F800100
:101EF000F003C0007C0078F003E1E00F07C0780F2A
:101F000003E01E0F007C7800F3E001EF0007F8000B
:101F10000FC0001F00007C0003F0000FE0007FC036
:101F200003CF000F1E00787C03E0F00F03E078077A
:101F3000C3E00F1F003E78007C78003DE001F78091
:101F4000078F001E3C00F0F003C1E00F0780781EF1
:101F500001E03C0780F03C03C0F00787C01E1E0074
:101F6000787800F3C003CF000F3C001FE0007F80B3
:101F700001FE0003F0000FC0003E0000780001E009
:101F8000000F00003C0001F0000780003E000FF051
:101F9000003FC000FE0001E000007FFFF7FFFF7F71
:101FA000FFF7FFFF0001E0003E0007C000F8001F40
:101FB0000003E0007C00078000F8001F0003E00041
:101FC0007C000F8001F0003E0003C0007C000FFF8A
:101FD000FFFFFFFFFFFFFFFFF001E0FC1F8780E036
:101FE0001C0380700E01C0380700E01C0380700ED7
:101FF00001C0781E0F81E03C07C03C038038070019
:10200000E01C0380700E01C0380700E01C038070E4
:102010000F00FC1F80F0FFFFFFFFFFFFFFFFFFFF30
:10202000FFFFFFFFFFFFF0F01F83F00F00E01C0336
:1020300080700E01C0380700E01C0380700E01C0E4
:102040001C03C03E03C0781F0780E0380700E01C77
:102050000380700E01C0380700E01C0380701E1F53
:1020600083F078003E000FF00DFF01F0F87C0FFDCB
:10207000807F8003E00000000007000100000411E1
:102080000803F009000A060B01EF11000D100D0006
:10209000F12B000D140D00EF4C0013111501F0751C
:1020A0000010111101F0970004060601EF9A0006D6
:1020B000160801EFAB0006160801EFBC000708097F
:1020C00001EFC3000B0B0E02F6D30004070601FE5E
:1020D000D70006030801F9DA0004030601FEDC005C
:1020E00006110700F0E9000C110D01F003010711C2
:1020F0000E03F012010C110D01F02C010C110D0159
:10210000F046010B110D01F05E010C110D01F0788C
:10211000010C110D01F092010B110D01F0AA010C3F
:10212000110D01F0C4010C110D01F0DE01040C06CB
:1021300001F5E40104100601F5EC010C0C0E01F5AB
:10214000FE010C090E01F70C020C0C0E01F51E022B
:102150000C120F02EF390215151701EF7102101260
:102160001100EF95020E121102EFB50210121101CB
:10217000EFD9020F121102EFFB020D121002EF193C
:10218000030C120F02EF340310121201EF58030E6A
:10219000121202EF780304120702EF81030B120EF2
:1021A00001EF9A0310121102EFBE030B120F02EFA0
:1021B000D70311121502EFFE030F121202EF2004D3
:1021C00011121301EF47040E121002EF67041113EE
:1021D0001301EF900410121102EFB4040F1210015A
:1021E000EFD6040C120F02EFF1040E121202EF11DF
:1021F000050F121000EF330517121700EF67050FD8
:10220000121001EF890510120F00EFAD050D120F2E
:1022100001EFCB0506170802EFDD0507110700F0F7
:10222000EC0506170800EFFE050C0B0E01F00F067B
:102230000F020DFF04130604030600EF15060D0D33
:102240000E01F42B060D120F02EF49060C0D0D01C5
:10225000F45D060D120F01EF7B060D0D0E01F491DA
:102260000607120801EFA1060D120F01F4BF060CBC
:10227000120E02EFDA0604120702EFE30606170752
:1022800000EFF5060C120E02EF100704120602EF23
:102290001907130D1502F438070C0D0F02F44C0743
:1022A0000D0D0F01F462070D120F02F480070D12DD
:1022B0000F01F49E07080D0902F4AB070C0D0D0188
:1022C000F4BF07060F0801F2CB070C0D0F02F4DF75
:1022D000070D0D0D00F4F507120D1300F413080D92
:1022E0000D0D00F429080D120D00F447080A0D0C1D
:1022F00001F4580806170901EF6A0802160702EFF1
:10230000700806170903EF82080C050C00F9FFFF9F
:10231000FFFF766660FFF0F3FCFF3FCF6198600E31
:1023200070738318FFF7FFBFFC73831818C7FFBFD4
:10233000FDFFE31839C1CE0E7002007E0FF87FE773
:10234000AFB93DC80F403F00FF00FC05FF27F93F34
:10235000EBEFFE3FE07C008004003C060FC181FCF7
:1023600030738C0C3181CE601FCC03F3003C67804E
:1023700019F8027F80CE7011860639C187F8307E49
:102380000C078007801FC03FE03CE03CE03EE00FD0
:10239000C007003F8C7FCCF1FCF0F8F078F8F87FB4
:1023A000FC3FDE1F8EFFFF660C738E71C738E38E15
:1023B00038E38E1C71C38E1870C3871C38E3871CEA
:1023C00071C71C71CE38E71C638010235FF3871B35
:1023D000140E01C038070FFFFFFFF8700E01C03860
:1023E00000FFF336C0FFFFC0FFF00C308618610C11
:1023F00030C218618430C01F83FC7FE79EF0FF0F5E
:10240000F0FF0FF0FF0FF0FF0FF0F79E7FE3FC0FE0
:1024100000061C7FFFE3C78F1E3C78F1E3C78F1EC9
:102420001F83FC7FEF9FF0FF0F00F00F01E03C0FD8
:1024300081E03C03807FF7FF7FF01F07FCFFEF1E6A
:10244000F1E01E03C07807C01E00F00FF0FF1F7FF1
:10245000E7FC1F8003C0F81F07E1BC278CF31E6355
:10246000D87BFFFFFFFE0780F01E03C03FE7FE7F23
:10247000E7006006F87FCFFEF1F00F00F00F00FEDE
:102480001EFFE7FC3F000F83FC7FE79FF00F78FF04
:10249000CFFEF9FF0FF0FF0FF0F79F7FE3FC0F80F7
:1024A000FFFFFFFF80E01C0701E0380F01C0780F3D
:1024B00001E0380F01E03C000F03FC7FC79E70E78E
:1024C0000E39C1F83FC79EF0FF0FF0FF9F7FE3FC7E
:1024D0001F801F03FC7FEF9EF0EF0FF0FF0FF9F757
:1024E000FF3FF1EF00EF1E7FE7FC1F00FFF0000051
:1024F0000FFFFFF000000FFF116C00100703F1FC4D
:102500007E0F80E00FC03F807F00F003FFFFFFFFE2
:10251000F000000000FFFFFFFFF0000E00FC07F0DE
:102520000FE01F00F07F1F8FE0F008001F07FC7F07
:10253000EF9FF0FF0F00F00F01E03C0780F00E006E
:10254000E00000F00F00F000FE001FFC03C0F038B8
:1025500001C38007183D9987EC6C71C3C3061E1830
:1025600030F181878C187C60C3638E3B8FDF8C3C9D
:10257000F0700001C0000780801FFE001FC0000334
:10258000E003E003E007F007F007700F780E780E25
:10259000381E3C1C3C3FFC3FFE3FFE780E780F701F
:1025A0000FF007FFC3FFCFFF3C3EF07BC1EF0FBF33
:1025B000FCFFE3FFCF07BC0FF03FC0FF07FFFEFFAC
:1025C000FBFF8007E01FF83FFC7C3E781FF80FF010
:1025D00000F000F000F000F000F000F80F781F7C31
:1025E0003E3FFE1FFC07F0FFE1FFE3FFE783EF0341
:1025F000DE07FC07F80FF01FE03FC07F80FF03FEFF
:1026000007BC1F7FFCFFF1FF80FFF7FFBFFDE00F5E
:10261000007803C01FFCFFE7FF3C01E00F007803D8
:10262000C01FFFFFFFFFC0FFFFFFFFFF00F00F0015
:10263000F00FFEFFEFFEF00F00F00F00F00F00F0C4
:102640000F0003F00FFC3FFE3E1F78077800F000FC
:10265000F000F07FF07FF07FF00778077C0F3E1FDF
:102660003FFB0FFB03E3F03FC0FF03FC0FF03FC055
:10267000FF03FFFFFFFFFFFF03FC0FF03FC0FF035F
:10268000FC0FF03FC0F0FFFFFFFFFFFFFFFFFF0168
:10269000E03C0780F01E03C0780F01E03C07F8FF24
:1026A0001FE3FC7BFE7FC3E0F03EF03CF078F0F0EF
:1026B000F1E0F3C0F780FF00FF80FF80FBC0F1E096
:1026C000F0F0F0F0F078F03CF03EF01EF01E03C0A9
:1026D000780F01E03C0780F01E03C0780F01E03C5A
:1026E00007FFFFFFFCF81FFE0FFF0FFF87FFC3FF71
:1026F000E1FFF9FFFCEFFE77FB3BFDDDFEFCFF7E1B
:102700007F9F3FCF9FE78FF3C7F8E3C0F01FF03FF5
:10271000F07FE0FFE1FFC3FDC7FB8FF39FE73FC7FB
:102720007F8FFF0FFE1FFC1FF81FF03FE03C03E010
:102730000FFC0FFF87C7C780F3C07BC01FE00FF0FF
:1027400007F803FC01FE00F780F3C078F0F87FFC87
:102750001FFC03F800FFE3FFEFFFBC1FF03FC0FFCB
:1027600003FC1FFFFBFFCFFE3C00F003C00F003C4B
:1027700000F003C00003E00FFC0FFF87C7C780F322
:10278000C07BC01FE00FF007F803FC01FE04F787D1
:10279000F3C3F8F0F87FFC1FFF83F1800000FFF81F
:1027A000FFFCFFFCF03EF01EF01EF01EF03CFFF8B8
:1027B000FFF0FFF8F03CF03CF03CF03CF03CF03C2B
:1027C000F01F0FC07FE1FFE7C3EF03DE003C007F97
:1027D000007FF03FF80FF801F001FE03DE0FBFFEAF
:1027E0003FF81FC0FFFFFFFFF0F00F00F00F00F0F9
:1027F0000F00F00F00F00F00F00F00F00F00F0F0EE
:102800003FC0FF03FC0FF03FC0FF03FC0FF03FC0D1
:10281000FF03FC0FF03FC0F7879FFE3FF03F0070C3
:102820000EF03DE079C0E381C787870E0E1C1E784D
:102830001CE039C073807E00FC01F801E003C00792
:102840008070381CE0F079E1F0F3C3E1E387C387DF
:102850000F870E3B9E1E77381CEE7039CCE07399C3
:10286000C06E3F00FC7E01F8FC03F0F803E1E007D6
:1028700083C00F0780F03CF0F9E1E1E783CF03FC70
:1028800003F007E007800F003F00FF01FE079E0FE7
:102890001E3C3CF83DE078F01E781E783C3C3C3C09
:1028A000781E780E700FF007E007E003C003C00346
:1028B000C003C003C003C003C003C0FFFFFFFFFE8F
:1028C00001F00F00F00F00F807807807807C03C04C
:1028D0003C03C01FFFFFFFFFC0FFFFFCF3CF3CF333
:1028E000CF3CF3CF3CF3CF3CFFFFC0C181030604D4
:1028F0000C1810306040C1810306FFFFCF3CF3CFBE
:102900003CF3CF3CF3CF3CF3CFFFFFC00F00F00F01
:1029100001F81B839C39C30C70E70EE070FFFFFFCA
:10292000FCE6301F83FF1FFDE1E00F03F9FFDF1E10
:10293000F0F78FBFFCFFE3CF80F007803C01E00F92
:10294000007BC3FF9FFEF8F783FC1FE0FF07F83F03
:10295000E3DFFEFFE7BE000F83FE7FF78FF07F000F
:10296000F00F00F0778F7FF3FE0F80007803C01E1A
:1029700000F0078FBCFFEFFF78FF83FC1FE0FF072D
:10298000F83DE3EFFF3FF8FBC01F81FE1FF9F1CFD9
:10299000077FFBFFDE00F003C39FFC7FC0F8003E13
:1029A000FDFBC79FBF3C78F1E3C78F1E3C78F01E4C
:1029B00079FBDFFEF1FF07F83FC1FE0FF07FC7DFB5
:1029C000FE7FF1F7803C01FF1E7FF0FE00F00F005C
:1029D000F00F00F00F7CFFEFFFF9FF0FF0FF0FF09B
:1029E000FF0FF0FF0FF0FF0FFFF00FFFFFFFFFFFE4
:1029F000FF3CF3C000F3CF3CF3CF3CF3CF3CF3CF2D
:102A0000FFFF80F00F00F00F00F00F0FF1EF3CF729
:102A10008FF0FF0FF8FF8F3CF1CF1EF0EF0FFFFF9D
:102A2000FFFFFFFFFFFFFFF78F9FFBFBFFFFFCF8A0
:102A3000FF1E1FE3C3FC787F8F0FF1E1FE3C3FC711
:102A400087F8F0FF1E1EF7CFFEFFFF9FF0FF0FF08D
:102A5000FF0FF0FF0FF0FF0FF0F00F81FF1FFCF1F1
:102A6000EF07F83FC1FE0FF07BC79FFC7FC0F80067
:102A7000F7C7FF3FFDF1EF07F83FC1FE0FF07FC73B
:102A8000BFFDFFCF787803C01E00F00780000F79EC
:102A9000FFDFFEF1FF07F83FC1FE0FF07BC7DFFE4F
:102AA0007FF1F7803C01E00F007803C0F3F7FFF8F7
:102AB000F0F0F0F0F0F0F0F0F01F87FCFFEF0FF80F
:102AC0000FF07FE0FF01FF0FFFE7FE1F8079E7BFF8
:102AD000FDE79E79E79E7DF3C0F0FF0FF0FF0FF05A
:102AE000FF0FF0FF0FF0FF1FFFF7FF3EF0F07B83BB
:102AF0009E1CF1E38E1C707783B81DC07E03E01F1F
:102B0000007000F0E1DC78771F3DE7CF79B38E6C81
:102B1000E3BB38EEFC1F3F07C7C1F1F07C780E1E07
:102B20000078F3C78F783B81FC07C01E01F01FC0FF
:102B3000EF0F78F1E78700F07B839E1C71E38E1E18
:102B4000707383B81FC07E03E00F007003803C07E2
:102B5000C03E01E000FFFFFFFC0F0783C1E0F078FB
:102B60003C0FFFFFFFC01CF3CE38E38E38E3BCF010
:102B7000E38E38E38E3CF1C0FFFFFFFFFFF0E38FF1
:102B80001C71C71C71C70F3DC71C71C71CF3CE0059
:102B9000780FE0CF307F01E000000000003E5B4F87
:102BA0005B3E3E6B4F6B3E1C3E7C3E1C183C7E3CAD
:102BB000181C577D571C1C5E7F5E1C00183C1800BB
:102BC000FFE7C3E7FF0018241800FFE7DBE7FF304B
:102BD000483A060E2629792926407F050507407FB9
:102BE00005253F5A3CE73C5A7F3E1C1C08081C1C2C
:102BF0003E7F14227F22145F5F005F5F06097F0122
:102C00007F006689956A606060606094A2FFA2940C
:102C100008047E040810207E201008082A1C0808DA
:102C20001C2A08081E101010100C1E0C1E0C303828
:102C30003E3830060E3E0E06000000000000005F29
:102C400000000007000700147F147F14242A7F2A45
:102C50001223130864623649562050000807030007
:102C6000001C2241000041221C002A1C7F1C2A0853
:102C7000083E0808008070300008080808080000B6
:102C800060600020100804023E5149453E00427F2A
:102C9000400072494949462141494D331814127F79
:102CA0001027454545393C4A494931412111090719
:102CB0003649494936464949291E0000140000009A
:102CC000403400000008142241141414141400416C
:102CD00022140802015909063E415D594E7C121129
:102CE000127C7F494949363E414141227F41414161
:102CF0003E7F494949417F090909013E41415173DC
:102D00007F0808087F00417F41002040413F017F4C
:102D1000081422417F404040407F021C027F7F0414
:102D200008107F3E4141413E7F090909063E41515D
:102D3000215E7F09192946264949493203017F014D
:102D4000033F4040403F1F2040201F3F4038403F4E
:102D5000631408146303047804036159494D430064
:102D60007F4141410204081020004141417F04029B
:102D70000102044040404040000307080020545432
:102D800078407F2844443838444444283844442810
:102D90007F385454541800087E090218A4A49C7863
:102DA0007F0804047800447D40002040403D007FBF
:102DB0001028440000417F40007C047804787C089F
:102DC0000404783844444438FC1824241818242473
:102DD00018FC7C08040408485454542404043F4458
:102DE000243C4040207C1C2040201C3C4030403C87
:102DF00044281028444C9090907C4464544C4400E7
:102E0000083641000000770000004136080002014A
:102E10000204023C2623263C1EA1A161123A404036
:102E2000207A3854545559215555794122545478B3
:102E300042215554784020545579400C1E5272124C
:102E400039555555593954545459395554545800D5
:102E500000457C410002457D420001457C407D12D9
:102E600011127DF0282528F07C545545002054543B
:102E70007C547C0A097F4932494949323A444444E6
:102E80003A324A4848303A4141217A3A4240207821
:102E9000009DA0A07D3D4242423D3D4040403D3C22
:102EA00024FF2424487E4943662B2FFC2F2BFF0947
:102EB00029F620C0887E090320545479410000443B
:102EC0007D413048484A32384040227A007A0A0A26
:102ED000727D0D19317D2629292F28262929292699
:102EE00030484D4020380808080808080808382FDE
:102EF00010C8ACBA2F102834FA00007B0000081468
:102F00002A142222142A14085500550055AA55AA3D
:102F100055AAFF55FF55FF000000FF00101010FFDD
:102F200000141414FF001010FF00FF1010F010F038
:102F3000141414FC001414F700FF0000FF00FF1429
:102F400014F404FC141417101F10101F101F141475
:102F5000141F00101010F0000000001F10101010BF
:102F60001F10101010F010000000FF1010101010B3
:102F700010101010FF10000000FF140000FF00FFF1
:102F800000001F10170000FC04F41414171017148D
:102F900014F404F40000FF00F714141414141414AF
:102FA000F700F7141414171410101F101F14141422
:102FB000F4141010F010F000001F101F0000001F8C
:102FC00014000000FC140000F010F01010FF10FFBF
:102FD000141414FF141010101F00000000F010FF54
:102FE000FFFFFFFFF0F0F0F0F0FFFFFF0000000038
:102FF00000FFFF0F0F0F0F0F3844443844FC4A4ABC
:103000004A347E02020606027E027E026355494170
:10301000633844443C04407E201E2006027E0202A7
:1030200099A5E7A5991C2A492A1C4C7201724C30BB
:103030004A4D4D303048784830BC625A463D3E4992
:103040004949007E0101017E2A2A2A2A2A44445F36
:10305000444440514A444040444A51400000FF012A
:1030600003E080FF000008086B6B08361236243638
:10307000060F090F0600001818000000101000309D
:1030800040FF0101001F01011E00191D1712003C25
:103090003C3C3C0000000000000000002400270031
:1030A0002A002D0000000000250028002B002E0023
:1030B000000000002300260029002C000404040462
:1030C00004040404020202020202030303030303D2
:1030D00005050505010204081020408001020408CE
:1030E000102001020408102004080102090C0A083B
:1030F00000020100000304070000000000000000BF
:10310000000000006D0057004E004D03B400200089
:103110007E0038530041474520005341545320005E
:103120006D56000E23752020007E001D872D112472
:103130001FBECFEFD8E0DEBFCDBF26E0A0ECB1E0F0
:1031400001C01D92A037B207E1F711E0A0E0B1E0A5
:10315000EEE2F9E602C005900D92A03CB107D9F766
:1031600018E1C7E9D8E104C02197FE010E94E931C6
:10317000C639D107C9F70E94432E0C9495340C949C
:103180000000AF92BF92CF92DF92EF92FF920F9327
:103190001F93CF93DF936C017B018B01040F151FED
:1031A000EB015E01AE18BF08C017D10759F0699155
:1031B000D601ED91FC910190F081E02DC6010995B9
:1031C000892B79F7C501DF91CF911F910F91FF9066
:1031D000EF90DF90CF90BF90AF900895FC01538D9A
:1031E000448D252F30E0842F90E0821B930B5417E1
:1031F00010F0CF96089501970895FC01918D828D6E
:10320000981761F0A28DAE0FBF2FB11D5D968C9106
:10321000928D9F5F9F73928F90E008958FEF9FEF45
:103220000895FC01918D828D981731F0828DE80F01
:10323000F11D858D90E008958FEF9FEF0895FC01BB
:10324000918D228D892F90E0805C9F4F821B910988
:103250008F73992708958CE492E00E941F1921E052
:10326000892B09F420E0822F0895FC01A48DA80F7A
:10327000B92FB11DA35ABF4F2C91848D90E00196B8
:103280008F739927848FA689B7892C93A089B189D8
:103290008C91837080648C93938D848D981306C079
:1032A0000288F389E02D80818F7D80830895EF92DD
:1032B000FF920F931F93CF93DF93EC0181E0888FF0
:1032C0009B8D8C8D98131AC0E889F989808185FFC0
:1032D00015C09FB7F894EE89FF896083E889F98962
:1032E00080818370806480839FBF81E090E0DF9164
:1032F000CF911F910F91FF90EF900895F62E0B8DB7
:1033000010E00F5F1F4F0F731127E02E8C8D8E1171
:103310000CC00FB607FCFACFE889F989808185FFD8
:10332000F5CFCE010E943519F1CFEB8DEC0FFD2FBB
:10333000F11DE35AFF4FF0829FB7F8940B8FEA8993
:10334000FB8980818062CFCFCF93DF93EC01888DA2
:103350008823B9F0AA89BB89E889F9898C9185FD10
:1033600003C0808186FD0DC00FB607FCF7CF8C919E
:1033700085FFF2CF808185FFEDCFCE010E94351908
:10338000E9CFDF91CF91089580E090E0892B29F07B
:103390000E942B1981110E94000080E090E0892B8F
:1033A00049F080E090E0892B29F00E940000811113
:1033B0000C940000089581508D3008F03DC0E82F36
:1033C000F0E0EB51F64E0C94E931FC19001AF219B9
:1033D000F8191C1A1C1A031A091A0D1A131A1C1AA6
:1033E000171A1D1A809180008F77809380000895AE
:1033F000809180008F7DF9CF84B58F7784BD08954B
:1034000084B58F7DFBCF8091B0008F778093B00023
:1034100008958091B0008F7DF9CF809190008F77D3
:10342000809390000895809190008F7DF9CF8091D6
:10343000A0008F778093A00008958091A0008F7DD9
:10344000F9CFCF93DF93282F30E0F901E451FF4CFF
:103450008491F901EC52FF4CD491F901E454FF4CF2
:10346000C491CC23A1F081110E94DB19EC2FF0E074
:10347000EE0FFF1FE055FF4CA591B491EC91ED23A9
:1034800081E090E009F480E0DF91CF91089580E041
:1034900090E0FACF1F93CF93DF93282F30E0F9010C
:1034A000E451FF4C8491F901EC52FF4CD491F901A5
:1034B000E454FF4CC491CC23A9F0162F81110E9433
:1034C000DB19EC2FF0E0EE0FFF1FEC55FF4CA59140
:1034D000B4918FB7F894EC91111108C0D095DE2308
:1034E000DC938FBFDF91CF911F910895DE2BF8CF32
:1034F000CF93DF9390E0FC01EC52FF4C2491845475
:103500009F4CFC0184918823C9F090E0880F991F9B
:10351000FC01E856FF4CA591B491FC01EC55FF4C21
:10352000C591D49161110DC09FB7F8948C912095ED
:1035300082238C938881282328839FBFDF91CF919A
:103540000895623051F49FB7F8943C91822F809592
:1035500083238C93E8812E2BEFCF8FB7F894EC91D7
:103560002E2B2C938FBFEACF3FB7F8948091370270
:1035700090913802A0913902B0913A0226B5A89BE9
:1035800005C02F3F19F00196A11DB11D3FBFBA2FF5
:10359000A92F982F8827BC01CD01620F711D811DB5
:1035A000911D43E0660F771F881F991F4A95D1F739
:1035B00008958F929F92AF92BF92CF92DF92EF9237
:1035C000FF926B017C010E94B41A4B015C01C11493
:1035D000D104E104F104B9F00E94B41A6819790920
:1035E0008A099B09683E73408105910580F321E0BB
:1035F000C21AD108E108F10888EE880E83E0981E0F
:10360000A11CB11CE4CFFF90EF90DF90CF90BF9052
:10361000AF909F908F9008952091E801260F332757
:10362000331F21323105ECF420910C02FC0190E0B3
:1036300080E0243069F082E00895A091E8012191B2
:10364000AC0148535E4FA40FB52FB11D2C930196CA
:10365000861798F38091E801680F6093E80180E095
:10366000089581E0089508958FEF9FEF08958FEFFB
:103670009FEF08958091C10190E091958195910906
:103680000895CF93DF93CB01EA01642F0E940C1BB6
:10369000CE01DF91CF910895CF93DF931F92CDB7E5
:1036A000DEB7698361E0CE0101960E940C1B81E0C8
:1036B00090E00F90DF91CF9108950895FC01637021
:1036C000668B8481958126813781613039F0633042
:1036D00029F0918780873387228708953187208753
:1036E0009387828708952F923F924F925F926F92B5
:1036F0007F928F929F92AF92BF92CF92DF92EF9282
:10370000FF920F931F93CF93DF93CDB7DEB76A97E6
:103710000FB6F894DEBF0FBECDBF9A8F898F7A8324
:1037200069834A01D22E18870F833701BC2CDC0134
:1037300059962D913C915A972115310509F015C1E3
:1037400018968D919C911997681779070CF0D7C13D
:103750001A968D919C91481759070CF0D0C14C2CAA
:10376000512CB6E0CB9E600D711D11247C876B87B8
:10377000161617060CF0C3C1EA2DF0E0FA87E987A8
:1037800093E0EE0FFF1F9A95E1F7F88BEF87CF01DB
:10379000840F951F181619060CF0B1C1A98DBA8DAA
:1037A00058968C91811104C0BFEABD1508F4D394DA
:1037B000A98DBA8DED91FC9111970284F385E02DCE
:1037C000CD010995B5E0DB9EC0011124E981FA81A4
:1037D000FC83EB83312C212C9C012856344D388FEF
:1037E0002F8B4A2D50E05E8B4D8BEF89F88DE20DCB
:1037F000F31D44919E828D82D12CC12C69817A81E6
:10380000620D731D7A8B698B842F90E09C8B8B8B60
:10381000E98DFA8DA081B18140FF82C0F1E0BF1235
:103820006FC0AF126DC01C96ED91FC912F81388551
:10383000A4014C0D5D1D69897A89898D9A8D099540
:10384000EB89FC89F595E7954E2F5FEFC51AD50AF0
:103850006D817E818D899E89680F791F7E836D833E
:1038600098E0C916D10481F6AFEF2A1A3A0AEB8123
:10387000FC81E40DF51DFC83EB83F5E02F1631048C
:1038800009F0B3CF2F81388526153705B9F0A98DFA
:10389000BA8DED91FC91B1E0BB1257C0AB1255C08F
:1038A00069817A816B5F7F4F0088F189E02D830108
:1038B00028E030E0A401898D9A8D0995A98DBA8DF3
:1038C000ED91FC9111970688F789E02DCD016A965C
:1038D0000FB6F894DEBF0FBECDBFDF91CF911F9121
:1038E0000F91FF90EF90DF90CF90BF90AF909F909F
:1038F0008F907F906F905F904F903F902F900994A2
:103900001E96ED91FC91EF80F88409851A8592014D
:103910004D815E816B817C81898D9A8D099590CFD7
:103920002F8138852615370509F48ACF31E0B31287
:1039300007C0A31205C01C96ED91FC91930178CFAE
:103940001E96ED91FC917301E0CF6B857C85641927
:1039500075090684F785E02D73010F85188992019A
:10396000A401898D9A8D0995A9CFF9013496949176
:10397000329745915491D91AB7E0DB9E400D511D05
:103980001124F901259134913C8B2B8BFA01259060
:103990003490FA013296749031963491398B329684
:1039A00064903196449041E04C1518F04A1508F0A7
:1039B0007FC0662D062C000C770B7C836B83842DD7
:1039C000042C000C990B9E838D83A98DBA8DED91EB
:1039D000FC9111970284F385E02DCD010995512CBE
:1039E000D12CC12CEA2DF0E0FA87E9872B2D30E0AD
:1039F0003C872B87A401440D511D47FC5A95588FD5
:103A00004F8B69817A81660D711D67FC7A957E877F
:103A10006D877989C71608F051CF2C2D30E04D8184
:103A20005E81420F531FA985BA854A9FC0014B9FF3
:103A3000900D5A9F900D1124FC01E80DF91DF88B93
:103A4000EF87852D612C4F89588D420F531F5E8B58
:103A50004D8B671408F050C044244394480E87707F
:103A600041F4C1010196EB89FC89E20DF31DD4906C
:103A70001C01D7FE19C0A98DBA8DED91FC91662D60
:103A800070E0B1E0BB1219C0AB1217C02D853E85A6
:103A9000620F731F0484F585E02D2F8138854D89D1
:103AA0005E89898D9A8D0995DD0C6394842DD1CF23
:103AB0001E821D821C821B8288CF4B815C81640F19
:103AC000751FAB85BC856A9FC0016B9F900D7A9F67
:103AD000900D112469817A81680F791F0684F7851A
:103AE000E02DEF80F88409851A859D014F8558895E
:103AF000898D9A8D0995D8CF570CC3948ACF6A9631
:103B00000FB6F894DEBF0FBECDBFDF91CF911F91EE
:103B10000F91FF90EF90DF90CF90BF90AF909F906C
:103B20008F907F906F905F904F903F902F9008956F
:103B30008F929F92AF92CF92EF92FF920F931F932B
:103B4000CF93DF93EC01262F898D9A8D009709F092
:103B500051C06A30D1F41D861C868D8948E0849F4F
:103B6000900111248E859F85820F931F9F878E87DA
:103B700081E090E0DF91CF911F910F91FF90EF9046
:103B8000CF90AF909F908F9008956D3089F3CC883F
:103B9000AD888F898823C1F08C859D8536E0C39ED2
:103BA000800D911D1124488559854817590764F4E3
:103BB0004E855F851D861C8638E0A39EC0011124BA
:103BC000840F951F9F878E87EA88FB88088919894B
:103BD0004E855F856C857D85CE010E94731B2C8987
:103BE0008C859D8546E0249F800D911D11249D8725
:103BF0008C87BECF6A3069F41D861C86FC0138961E
:103C0000E4912D898E859F85E29F800D911D112461
:103C1000ADCF6D3009F4ACCFFC013496349163170D
:103C200008F4A6CF3296E491E61708F4A1CFFC0180
:103C3000329685909490462F431B342F47E0349F53
:103C4000800C911C1124F401329634913196E49148
:103C50003323A9F1EE2399F1CC88F4013596E49150
:103C6000AD884F89442301F10E2E000CFF0BE30FAA
:103C7000F11DCE9EA001CF9E500D11246C857D8537
:103C8000460F571F68857985641775076CF44E8554
:103C90005F851D861C86FC013896E491AE9E400D22
:103CA000511D11245F874E87EA88FB88088919898E
:103CB0004E855F856C857D85CE010E94731BF40166
:103CC0003496E4912C898C859D85E29F800D911D11
:103CD00011248DCF0F931F93CF93DF938C01D0E0EE
:103CE000C0E0F801EC0FFD1F6491662341F08AEEFD
:103CF00092E00E94981D892B11F02196F2CFCE01FF
:103D0000DF91CF911F910F9108956F927F928F92C3
:103D10009F92AF92BF92CF92DF92EF92FF920F935A
:103D20001F93CF93DF93EC016B015A0139014801D6
:103D3000E881F9810284F385E02D0995E881F98114
:103D40000288F389E02D87019301A501B601CE0118
:103D50000995A501480D591D41505109E881F98186
:103D60000288F389E02D9301B601CE010995E8811F
:103D7000F9810088F189E02D9401A501B601CE01F9
:103D80000995C60CD71CB60161507109E881F9810B
:103D90000088F189E02D9401A501CE010995E88103
:103DA000F9810688F789E02DCE01DF91CF911F912F
:103DB0000F91FF90EF90DF90CF90BF90AF909F90CA
:103DC0008F907F906F9009946F927F928F929F92C5
:103DD000AF92BF92CF92DF92EF92FF920F931F9319
:103DE000CF93DF935C01EB016A0149013801870140
:103DF000DC01ED91FC916217730719F564167506E5
:103E00002CF0962D872D3A01C92ED82E9601261911
:103E100037092F5F3F4F048CF58DE02DA301BE01C4
:103E2000C5010995DF91CF911F910F91FF90EF9000
:103E3000DF90CF90BF90AF909F908F907F906F90CA
:103E400008954615570591F42617370724F0892D54
:103E50004B01C22FD82F9E01281939092F5F3F4FE0
:103E6000068CF78DE02DA601B401DACF0284F3852C
:103E7000E02D0995D501ED91FC910488F589E02D9F
:103E800083019401A601BE01C5010995D501ED91FB
:103E9000FC910688F789E02DC501DF91CF911F9134
:103EA0000F91FF90EF90DF90CF90BF90AF909F90D9
:103EB0008F907F906F900994EF92FF920F931F93D2
:103EC000DC011A960D911C911B9718962D913C912F
:103ED0001997ED91FC9100A0F1A1E02D7B0150E03C
:103EE00040E070E060E009951F910F91FF90EF9026
:103EF00008954F925F926F927F928F929F92AF92AE
:103F0000BF92CF92DF92EF92FF920F931F93CF93C6
:103F1000DF936C012B015A0139014801DC01ED915D
:103F2000FC910284F385E02D0995E201640C751C77
:103F3000D601ED91FC91C615D7055CF40088F18996
:103F4000E02D87019401A501BE01C60109952196C6
:103F5000EFCF0688F789E02DC601DF91CF911F9141
:103F60000F91FF90EF90DF90CF90BF90AF909F9018
:103F70008F907F906F905F904F9009948F929F9257
:103F8000AF92BF92CF92DF92EF92FF920F931F9367
:103F9000CF93DF93EC015B014A016901E881F9816C
:103FA0000284F385E02D099595012C0D3D1D2150CE
:103FB0003109E881F9810488F589E02D78018401CF
:103FC000A401B501CE010995E881F9810688F78938
:103FD000E02DCE01DF91CF911F910F91FF90EF90D7
:103FE000DF90CF90BF90AF909F908F9009948F9269
:103FF0009F92AF92BF92CF92DF92EF92FF920F9378
:104000001F93CF93DF93EC015B014A0169017801B3
:10401000E881F9810284F385E02D0995C80CD91C4B
:10402000860101501109E881F9810488F589E02DA4
:104030009501A401B501CE010995E881F9810688B1
:10404000F789E02DCE01DF91CF911F910F91FF9065
:10405000EF90DF90CF90BF90AF909F908F9009949A
:10406000EF92FF920F931F93DC01ED91FC9100A062
:10407000F1A1E02D09951F910F91FF90EF90089508
:104080000F931F93DC01ED91FC91068CF78DE02DD1
:1040900009951F910F9108950F931F93DC01ED91E6
:1040A000FC91048CF58DE02D09951F910F910895D9
:1040B000DC01ED91FC910084F185E02D09942F92B3
:1040C0003F924F925F926F927F928F929F92AF92A8
:1040D000BF92CF92DF92EF92FF920F931F93CF93F5
:1040E000DF9300D000D000D0CDB7DEB73C016A012D
:1040F0003E832D83FC82EB825801A41AB50AB7FED9
:1041000003C0B194A194B1088D809E80861A970A4D
:1041100097FE03C09194819491088A149B045CF0EB
:10412000902F812F0D811E819D838E839C2D8D2D3F
:104130006B01692F782F0C151D055CF09D818E8118
:104140007E836D83692F782F902F812F8601C92E52
:10415000D82E1601201A310A2B012D813E81421AD8
:10416000530A57FE03C0519441945108710137FE20
:1041700003C03FEFE31AF30AF594E7948D819E8123
:10418000861797075CF5A1E0B0E0BA83A983C01653
:10419000D1064CF1D301ED91FC910484F585E02D1D
:1041A0002B813C81A8016D817E818A149B041CF0C7
:1041B0004D815E81B801C3010995E418F508F7FE49
:1041C0000AC02D813E8189819A81280F391F3E8343
:1041D0002D83E20CF31C0F5F1F4FD9CF2FEF3FEF62
:1041E0003A832983D4CF26960FB6F894DEBF0FBE4C
:1041F000CDBFDF91CF911F910F91FF90EF90DF9096
:10420000CF90BF90AF909F908F907F906F905F9076
:104210004F903F902F900895CF93DF93FC01278517
:10422000308937FD22C0EC01828D882309F160E0DE
:10423000822F0E944A1A61E08F850E94781A6CA131
:104240007DA190E080E00E94D91A62E08F850E94F3
:10425000781A6CA17DA16A30710510F46AE070E0F3
:1042600090E080E00E94D91A1BA2DF91CF910895BF
:1042700061E0822F0E944A1A61E08F850E94781ABD
:104280006AE070E080E090E00E94D91A60E08F85DB
:104290000E944A1A6CA17DA190E080E00E94D91A88
:1042A00061E08F850E944A1AD4CF8F929F92AF927D
:1042B000BF92EF920F931F93CF93DF93EC014A01CC
:1042C0005B012F8F28A3EA8E19A21AA21BA21DA39D
:1042D0000CA381149104A104B10409F45FC060E847
:1042E00074E88EE190E0A50194010E9471312150A3
:1042F0003109410951095695479537952795E09120
:104300005C02F0915D0282E08083211580E1380734
:10431000A8F0E0915C02F0915D02108260E472E42A
:104320008FE090E0A50194010E9471312150310984
:10433000410951095695479537952795E0915802BF
:10434000F09159023083E0915A02F0915B02208390
:1043500010926402E0916002F091610286E0808335
:10436000E0915E02F0915F02808180618083E09144
:104370005E02F0915F02808188608083E0915E023E
:10438000F0915F02808180688083E0915E02F0910D
:104390005F0280818F7D808381E0898F8B859C8502
:1043A00097FD07C061E00E944A1A61E08B850E9478
:1043B000781A8D859E8597FD07C061E00E944A1A94
:1043C00061E08D850E94781ACE010E940C218989B6
:1043D0009A8997FD03C060E00E94781ABFB6F894EE
:1043E0008091C001811127C0E6ECF0E38491EEEDED
:1043F000F0E39491E82FF0E0EE0FFF1FE856FF4C3A
:10440000A591B491EC91E92321F461E08AE00E9446
:104410004A1A61E08AE00E94781A8CB580618CBDEE
:104420008CB580648CBD61E08DE00E94781A61E0FB
:104430008BE00E94781A8091C0018F5F8093C00149
:10444000BFBE89899A890C9769F460E08CE0DF919E
:10445000CF911F910F91EF90BF90AF909F908F9051
:104460000C94781ADF91CF911F910F91EF90BF902C
:10447000AF909F908F900895EF920F931F93DC0160
:10448000ED91FC910280F381E02DE12C0AE010E037
:1044900021E009951F910F91EF90089508958CBD2B
:1044A0009DBD08951F93CF93DF93EC01162F8D8D43
:1044B0009E8D0E944F228B859C8597FD03C060E0F6
:1044C0000E944A1A1EBD00000DB407FEFDCF8EB536
:1044D0008B859C8597FD06C061E0DF91CF911F9190
:1044E0000C944A1ADF91CF911F9108951F93CF9397
:1044F000DF93EC01162F8D8D9E8D0E944F228D85AE
:104500009E8597FD03C060E00E944A1A8B859C85BA
:1045100097FD03C060E00E944A1A1EBD00000DB462
:1045200007FEFDCF8EB58B859C8597FD03C061E0AE
:104530000E944A1A8D859E8597FD06C061E0DF9135
:10454000CF911F910C944A1ADF91CF911F9108953A
:10455000AF92BF92CF92DF92EF92FF920F931F9391
:10456000CF93DF93EC015B016A012150310979019E
:10457000E60EF71E01501109040F151F64E40E9496
:10458000762283E0B694A7948A95E1F76A2DCE014E
:104590000E945222B70193E0769567959A95E1F7CC
:1045A000CE010E94522265E4CE010E9476226C2D3B
:1045B000CE010E9452226D2DCE010E945222602F08
:1045C000CE010E945222612FCE010E9452226EE43F
:1045D000CE010E9476226A2DCE010E9452226FE403
:1045E000CE010E9476226C2DCE010E9452226D2DAA
:1045F000CE01DF91CF911F910F91FF90EF90DF904F
:10460000CF90BF90AF900C9452220F931F93CF93F3
:10461000DF93DC0177FDAFC018968D919C911997BF
:10462000681779070CF0A7C057FDA5C01A96ED9141
:10463000FC911B974E175F070CF09DC0FD01E959D7
:10464000FC4FE081EE2331F0FC01E61BF70BBF01CC
:104650006150710956968C915697823009F490C03A
:10466000833009F4A2C0813051F414968D919C914D
:104670001597841B950BAB01BC0161507109FD01BD
:10468000EE58FC4F80819181681B790B77FD73C0D8
:10469000349680819181681779070CF06CC032974D
:1046A0000190F081E02D4E1B5F0B57FD64C0FD01B2
:1046B000E858FC4F0190F081E02D4E175F070CF099
:1046C0005AC0FD01E059FC4F0190F081E02DED0151
:1046D000C459DC4F08811981E09FE001E19FD00DB2
:1046E000F09FD00D11244C1B5D0B57FD44C04E179D
:1046F0005F070CF040C0E3E096958795EA95E1F7F7
:10470000849FF001859FF00D949FF00D1124AB0163
:1047100077FF02C0495F5F4F83E0559547958A95C3
:10472000E1F7E40FF51FEA0FFB1FEF01CB5BDF4F53
:104730001881CB0168E070E00E945D3167E070E0B5
:10474000681B790B41E050E001C0440F6A95EAF71D
:10475000812F842B8883DF01AB52BE4F8C91982F21
:10476000942B9C932F3F320731F02115310541F5F1
:10477000409541234883DF91CF911F910F91089578
:1047800014968D919C911597FC01E61BF70BBF01C8
:104790006150710916968D919C911797FC01E41B4D
:1047A000F50BAF01415051096ACF16968D919C913E
:1047B0001797861B970BBA01AC01415051095FCF87
:1047C000211598EF390719F0203E3F4FA1F6EB5223
:1047D000FE4F409548234083CECF9C016F3F760724
:1047E000F9F09FEF80E06115710561F090E06115CF
:1047F00088EF780731F091E0603E7F4F09F490E058
:1048000091958FEFF901EB5BFF4F2B523E4F819358
:10481000DF01A157BE4F9C93E217F307C1F708953C
:104820009FEFEFCF08956F927F928F929F92AF92FA
:10483000BF92CF92DF92EF92FF920F931F93CF938D
:10484000DF93CDB7DEB7A989BA89FC01608071809A
:10485000FD89FF93FC89FF93FB89FF93BF93AF937F
:10486000D3011C96ED91FC9109950F900F900F903C
:104870000F900F90DF91CF911F910F91FF90EF90CC
:10488000DF90CF90BF90AF909F908F907F906F9070
:1048900008958F92AF92CF92EF92FF920F931F9352
:1048A000CF93DF93CDB7DEB7DC01ED91FC910084AF
:1048B000F185E02D0995DF91CF911F910F91FF9028
:1048C000EF90CF90AF908F900895DC01ED91FC9127
:1048D0000680F781E02D099490E080E008950E9421
:1048E000EF31FB0101900020E9F73197AF01461B42
:1048F000570BDC01ED91FC910280F381E02D0994CE
:104900008F929F92AF92BF92EF92FF920F931F935D
:10491000CF93DF93CDB7DEB7A1970FB6F894DEBF84
:104920000FBECDBF7C01FA01CB0119A2223008F4E1
:104930002AE08E010F5D1F4F822E912CB12CA12CED
:10494000BF01A50194010E947131F901CA016A30C9
:104950000CF5605DD8016E938D01232B242B252B44
:1049600079F790E080E0109721F0BD01C7010E9427
:104970007124A1960FB6F894DEBF0FBECDBFDF91B4
:10498000CF911F910F91FF90EF90BF90AF909F90AC
:104990008F900895695CDECF8F929F92AF92BF9205
:1049A000CF92DF92EF92FF920F931F93CF93DF93FB
:1049B000FC012189328937FD7CC08B01EC0161E06B
:1049C00070E080E090E00E94D91A0E94B41A6B0156
:1049D0007C0189890E94211A2B893C8982179307BF
:1049E00059F5EEA1FFA1309709F45CC088A599A5FF
:1049F000099589890E94211A2B893C89821793077E
:104A0000D9F40E94B41A6C197D098E099F098D880A
:104A10009E88AF88B88C86169706A806B906C8F691
:104A200065E671E08CE492E00E94712463E771E036
:104A30008CE492E00E9471240115110509F44AC02A
:104A4000898D882309F446C00E94B41A9B01AC01E9
:104A50002C193D094E095F0969017A01B8018CE4FE
:104A600092E00E94712466E771E08CE492E00E947B
:104A700071242AE0B701A6018CE492E00E94802410
:104A800063E771E08CE492E0DF91CF911F910F9189
:104A9000FF90EF90DF90CF90BF90AF909F908F905E
:104AA0000C94712461E070E080E090E00E94D91ADB
:104AB000A0CFBA0190E080E0DF91CF911F910F91DC
:104AC000FF90EF90DF90CF90BF90AF909F908F902E
:104AD0000C94D91ADF91CF911F910F91FF90EF9015
:104AE000DF90CF90BF90AF909F908F900895CF931D
:104AF000DF93EC0162E20E94762267EFCE010E9412
:104B0000522260E2CE010E94762240EB56E36AE731
:104B100071E0CE01DF91CF910C94CC24CF93DF9341
:104B2000EC0162E20E94762267EFCE010E945222DF
:104B300060E2CE010E94762240EB56E367E871E026
:104B4000CE01DF91CF910C94CC240F931F93662359
:104B500091F0DC01ED91FC910688F789E02D08ECDD
:104B600010E028EC30E050E040E070E060E00995B3
:104B70001F910F9108951F910F910C948E250F9303
:104B80001F93CF93DF93EC018BA1882319F0CE0103
:104B90000E940C2162E1CE010E94762244E650E0A0
:104BA00070E060E0CE010E94CC2461E0CE010E9462
:104BB000762267ECCE010E94522260E0CE010E9474
:104BC000522260E0CE010E94522261E1CE010E9499
:104BD000762263E0CE010E9452226CE3CE010E9455
:104BE000762261E0CE010E94522268E1CE010E944D
:104BF000762260E8CE010E94522208EC10E028ECF8
:104C000030E050E040E070E060E0CE010E94A82279
:104C100089A1811113C062E2CE010E94762260EC6C
:104C2000CE010E94522260E2CE010E94762244E62A
:104C300050E064E971E0CE010E94CC2481E089A3B8
:104C4000DF91CF911F910F910895AF92BF92CF92B4
:104C5000DF92EF92FF920F931F93CF93DF935C014C
:104C600077FF02C0260F371F57FF02C0040F151F22
:104C7000EB0177FF02C0D0E0C0E07A0157FF02C02D
:104C8000F12CE12CC9018C0F9D1F883C910524F06B
:104C900028EC30E02C1B3D0BC8018E0D9F1D883C7D
:104CA000910524F008EC10E00E191F0912161306E6
:104CB00054F5101611063CF56E0187E0C822DD247C
:104CC000C20ED31EC60187709927009729F0C81A13
:104CD000D90AC60108966C01C5010E94BF25BE0114
:104CE000687F9601A701C5010E94A822C501DF9136
:104CF000CF911F910F91FF90EF90DF90CF90BF90D9
:104D0000AF900C947725DF91CF911F910F91FF9079
:104D1000EF90DF90CF90BF90AF9008952F923F9289
:104D20004F925F926F927F928F929F92AF92BF92BB
:104D3000CF92DF92EF92FF920F931F93CF93DF9367
:104D4000CDB7DEB72D970FB6F894DEBF0FBECDBF3F
:104D50001C017A8769872A0139011A8309830AA10C
:104D60001BA14CA14B875DA15C878EA18D87D101D2
:104D70005F968C915F97882341F0ED91FC910680BE
:104D8000F781E02D6FEFC101099561E070E080E0EF
:104D900090E00E94D91AE981FA81F7FD31C1F7FC50
:104DA0002FC197FC2DC117FD2BC157FC29C14E16F1
:104DB0005F060CF025C177FC23C16E147F040CF054
:104DC0001FC1970126193709021713070CF4980120
:104DD000C60168E070E00E945D31C81AD90AC201BC
:104DE000887F49815A81481B590BCA018416950650
:104DF0000CF4C4014C0157E0850E911C97FE04C0D1
:104E00004C01AEE08A0E911CB8EF8B22DC82CB8283
:104E1000D7FE02C01C821B82C601880D991D883CEA
:104E200091052CF0E8EC8E2E912C8C189D08C50174
:104E3000820F931F883C910524F028EC30E02A195A
:104E40003B09EB81FC81EC19FD09F887EF838E1A91
:104E50009F0A181419040CF0D3C06501B7FE02C0F4
:104E6000D12CC12CA6014A195B095A01C901841B26
:104E7000950B9E838D83181619060CF0C1C0D101C5
:104E800092968C91811103C0C1010E94BF250D81B2
:104E90001E819401A6016B817C81C1010E94A82220
:104EA00064E2C1010E947622F40163E0F595E79582
:104EB0006A95E1F7FC83EB83920173E035952795C2
:104EC0007A95E1F78F81988597FD079643E0959550
:104ED00087954A95E1F709811A81095F1F4F53E0D1
:104EE000159507955A95E1F7D12CC12CA3014A0DD0
:104EF0005B1D5A8349832701461857084A185B08E7
:104F000051E0451A51085901A80EB91E89819A81AC
:104F10008C0D9D1D809F3001819F700C909F700CA7
:104F20001124C2018C199D09809F4001819F900C22
:104F3000909F900C1124F12CE12C6A0C7B1C8A0CA4
:104F40009B1C8B819C818E159F05D9F09C85F4015B
:104F5000911101C0F301EE0DFF1DA985BA85EA0F7D
:104F6000FB1FBD85BB2359F06491EB85E111609572
:104F7000C1010E945222FFEFEF1AFF0AE2CF6081C7
:104F8000F4CF4FEFC41AD40A8D819E818C159D05F4
:104F900009F0BCCF66E2C1010E94762210E000E079
:104FA000B12CA12CEA14FB0441F060E0C1010E9485
:104FB00052229FEFA91AB90AF5CF0F5F1F4FC016F3
:104FC000D10671F761E070E080E090E02D960FB6B9
:104FD000F894DEBF0FBECDBFDF91CF911F910F912F
:104FE000FF90EF90DF90CF90BF90AF909F908F9009
:104FF0007F906F905F904F903F902F900C94D91AB4
:105000002D960FB6F894DEBF0FBECDBFDF91CF91C6
:105010001F910F91FF90EF90DF90CF90BF90AF90D6
:105020009F908F907F906F905F904F903F902F90C8
:1050300008952F923F924F925F926F927F928F923C
:105040009F92AF92BF92CF92DF92EF92FF920F9317
:105050001F93CF93DF93CDB7DEB72B970FB6F8949E
:10506000DEBF0FBECDBF1C017E836D8358874F838B
:105070003901A9868A8628A12B87DC015F968C914D
:105080005F97882341F0ED91FC910680F781E02D38
:105090006FEFC101099561E070E080E090E00E944F
:1050A000D91AC701079697FD0796FC0133E0F595DD
:1050B000E7953A95E1F7FA83E983C30168E070E088
:1050C0000E945D31681A790A2F0143E0440C551C97
:1050D0004A95E1F7730177FE02C0F12CE12CC30180
:1050E000840D951D883C91052CF028EC422E512C06
:1050F00046185708C8018C0D9D1D883C91050CF47D
:105100007BC088EC90E0801B910B470186189708C4
:1051100048185908141415040CF0DCC0380117FFA6
:1051200002C0712C612C5301A01AB10A9C012A19EA
:105130003B093C832B83121613060CF0CBC0C10134
:105140000E94BF250B811C819201A301B701C101FF
:105150000E94A82264E2C1010E94762293E0559445
:1051600047949A95E1F797FE03C037E0830E911CB0
:1051700083E0959487948A95E1F781E0C81AD10875
:10518000CA18DB08A981BA81CA9E7001CB9EF00CB7
:10519000DA9EF00C1124E80CF91CAA9E8001AB9E4B
:1051A000100DBA9E100D1124080D191D380147016C
:1051B000B12CA12CD12CC12C4C145D0429F1ED8112
:1051C000FE816FEFEF2B89F0FA85FF23B9F0F6012E
:1051D000E80DF91D2D813E81E20FF31F3B8533233E
:1051E00089F06491898581116095C1010E945222E4
:1051F0009FEFC91AD90AE0CFC60187CFF601E60DA5
:10520000F71DE8CF6081EECFAFEFAA1ABA0AE981A5
:10521000FA818E1A9F0A6E0E7F1E2B813C812A1501
:105220003B0541F666E2C1010E947622712C612C99
:10523000912C812CC814D90419F18F8198856FEFB6
:10524000892B89F09A85F4019923A9F0EE0DFF1DB1
:10525000AF81B885EA0FFB1FBB85BB2379F0649152
:10526000E985E11160956095C1010E945222FFEF2E
:105270008F1A9F0ADFCFE00FF11FEACF6081F0CFD6
:105280002FEF621A720A89819A81E81AF90A080FC7
:10529000191FA614B70461F661E070E080E090E0A9
:1052A0002B960FB6F894DEBF0FBECDBFDF91CF9126
:1052B0001F910F91FF90EF90DF90CF90BF90AF9034
:1052C0009F908F907F906F905F904F903F902F9026
:1052D0000C94D91A2B960FB6F894DEBF0FBECDBF33
:1052E000DF91CF911F910F91FF90EF90DF90CF90C2
:1052F000BF90AF909F908F907F906F905F904F90F6
:105300003F902F9008958F92AF92CF92DF92EF92BD
:10531000FF920F931F93CF93DF93CDB7DEB78F929A
:105320008A2CAC2C6701780189019A0150E040E099
:105330000E9419280F90DF91CF911F910F91FF903C
:10534000EF90DF90CF90AF908F900895FF920F93E2
:105350001F93CF93DF93EC01F62E1F8E0E94BF2583
:1053600008EC10E028EC30E050E040E070E060E055
:10537000CE010E94A82264E2CE010E94762210E0B3
:1053800000E06F2DCE010E9452220F5F1F4F0838A0
:1053900083E11807B1F766E2CE010E94762210E0A1
:1053A00000E060E0CE010E9452220F5F1F4F0838DC
:1053B00083E11807B1F7DF91CF911F910F91FF9013
:1053C0000895FF920F931F93CF93DF93EC01F62E76
:1053D0001F8E0E94BF2508EC10E028EC30E050E062
:1053E00040E070E060E0CE010E94A82264E2CE01BD
:1053F0000E94762210E000E06F2DCE010E94522222
:105400000F5F1F4F083883E11807B1F766E2CE013E
:105410000E94762210E000E060E0CE010E9452225D
:105420000F5F1F4F083883E11807B1F7CE01DF91F6
:10543000CF911F910F91FF900C947725CF93DF931D
:10544000EC0162E20E94762263ECCE010E945222BD
:1054500060E2CE010E9476224AEF50E06DE971E0F1
:10546000CE010E94CC2419A2DF91CF9108950C9413
:105470001E2ACF93DF93EC010E941E2A8F85988904
:1054800097FD0AC060E1CE010E94762261E0CE0164
:105490000E94522281E08BA3DF91CF9108951F9348
:1054A000CF93DF9385ED8093BC008091C4019091F0
:1054B000C501A091C601B091C7010796A11DB11DFC
:1054C00023E0B695A795979587952A95D1F72091D2
:1054D000BC0024FD03C010920C0252C04091C401D4
:1054E0005091C5016091C6017091C701452B462BB3
:1054F000472B69F30097A105B10541F02AE12A95F0
:10550000F1F700C00197A109B109E1CF8091C30172
:10551000C1E0C093C201882399F1D091B8001091E5
:10552000BA008091BC008A7B8093BC0060E082E17D
:105530000E944A1A60E083E10E944A1A10920C020B
:10554000C0930E0210920D0261E082E10E944A1A9D
:1055500061E083E10E944A1A8091B9008E7F8093B6
:10556000B9008091B9008D7F8093B90080E280936B
:10557000B80085E48093BC001093BA00D093B800C3
:10558000DF91CF911F9108951F920F920FB60F9246
:1055900011242F933F934F935F936F937F938F9338
:1055A0009F93AF93BF93EF93FF938CE492E00E949D
:1055B0003519FF91EF91BF91AF919F918F917F919D
:1055C0006F915F914F913F912F910F900FBE0F9070
:1055D0001F9018951F920F920FB60F9211242F93C0
:1055E0008F939F93EF93FF93E0915C02F0915D02A4
:1055F0008081E0916202F091630282FD1BC0908184
:10560000809165028F5F8F7320916602821741F04F
:10561000E0916502F0E0E45BFD4F958F80936502B9
:10562000FF91EF919F918F912F910F900FBE0F904F
:105630001F9018958081F4CF1F920F920FB60F9292
:1056400011242F933F938F939F93AF93BF93809198
:10565000330290913402A0913502B091360230911C
:10566000320226E0230F2D3758F50296A11DB11DF9
:10567000209332028093330290933402A093350238
:10568000B09336028091370290913802A09139028E
:10569000B0913A020196A11DB11D809337029093FB
:1056A0003802A0933902B0933A02BF91AF919F9113
:1056B0008F913F912F910F900FBE0F901F901895D3
:1056C00029E8230F0396A11DB11DD2CF0C94BF185A
:1056D0001F920F920FB60F9211242F933F934F9367
:1056E0005F936F937F938F939F93AF93BF93EF934A
:1056F000FF938091B900887F803609F44AC0F0F5A5
:10570000883209F4A5C018F5803109F499C0B8F4BD
:10571000882309F4F5C0883009F492C0FF91EF9115
:10572000BF91AF919F918F917F916F915F914F91B9
:105730003F912F910F900FBE0F901F9018958831B9
:1057400009F486C0803251F780930B0214C0803474
:1057500009F49BC040F48033B9F38833F9F68093A1
:105760000B0285ECAEC0803509F483C0883509F49E
:1057700094C0883499F60E944F2AD0CF883909F412
:105780008AC038F5883729F050F4883611F0803710
:1057900029F683E080930C0210920A0255C08838E3
:1057A00009F479C0803919F0803809F0B7CF8091B9
:1057B0000A02803208F06FC0E0910A0281E08E0F89
:1057C00080930A028091BB00F0E0E651FE4F808397
:1057D0003BC0803B39F0D0F4803A09F477C0883A76
:1057E00009F09CCF84E080930C021092E9011092A2
:1057F000E801F0E0E0E009958091E80181110FC037
:1058000081E08093E8011092C80109C0803C09F44E
:10581000A8CF883C09F4A5CF883B09F07FCFE09161
:10582000E90181E08E0F8093E901F0E0E853FE4F3B
:1058300080818093BB009091E9018091E80129C0AB
:10584000809131028093BB0085EC8093BC0066CFD1
:105850009091300280912F02981758F5E091300214
:1058600081E08E0F80933002F0E0E15FFD4F808198
:10587000E9CFE091300281E08E0F80933002809179
:10588000BB00F0E0E15FFD4F80839091300280919A
:105890002F029817C8F285E8D8CFE091300281E056
:1058A0008E0F809330028091BB00F0E0E15FFD4FEE
:1058B000808380910E0281115ECF81E080930D0282
:1058C00084EA8093BC0010920C0228CF85EC809370
:1058D000BC0010920C0280910A02803230F4E091F8
:1058E0000A02F0E0E651FE4F108260910A0270E079
:1058F0008AEE91E0F0E0E0E0099510920A020ECF06
:1059000010920B0238CF1F920F920FB60F921124F4
:105910008F939F93AF93BF9380910001909101016A
:10592000A0910201B09103010196A11DB11D8093C8
:10593000000190930101A0930201B0930301BF9174
:10594000AF919F918F910F900FBE0F901F90189560
:105950001F920F920FB60F9211240F900FBE0F904F
:105960001F9018951F920F920FB60F9211240F904F
:105970000FBE0F901F90189564E676E00E94C32C2E
:1059800084E696E00895A8E0B0E0E9ECFCE20C942F
:10599000BC318B01FC01608171818281938120E89F
:1059A00031E541E050E00E94713169017A012CE358
:1059B00030E040E050E00E94933129833A834B83EA
:1059C0005C8389819A81AB81BC81F80160836CE33F
:1059D00070E00E945D31DC01F801A1836283C601A1
:1059E000069667E070E00E94493184832DEA3EE824
:1059F00040E050E0C701B6010E94933129833A8309
:105A00006D837E838F83988789819A8124E6289F7E
:105A10006001299FD00C11246D817E818F81988532
:105A200025EB35E040E050E00E94933129833A8332
:105A30006D837E83E980FA80EE0CFF1CEE0CFF1C68
:105A4000EC0CFD1C8D819E81F5E6EF16F104A0F1B2
:105A5000019621E030E0A90144595E4F48175907EB
:105A600060F46DE671E0821B930B0E945D31DC01F6
:105A7000E60EF71ECD0130E020E044E6E40EF11C16
:105A8000F801F782E68291878087255C3F4F821775
:105A90009307E0F46FE170E00E945D31DC01F801F2
:105AA0006583A383F8011386128683818F5F8383C6
:105AB0002896E8E00C94D83151E040E024E6E21664
:105AC000F10409F450E0252F342FC5CF69E970E0C7
:105AD000821B930B0E945D31DC01262F220F220FC7
