:100000000C94C3070C94EB070C94EB070C94EB07D0
:100010000C94EB070C94EB070C94E01B0C94B11BB5
:100020000C94EB070C94EB070C94EB070C94EB0788
:100030000C94EB070C94EB070C94EB070C94EB0778
:100040000C944A1A0C94EB070C94181A0C94F2199D
:100050000C94EB070C94D61B0C94EB070C94EB0759
:100060000C94961A0C94EB070C94941A0C94941A12
:100070000C94941A0C94941A0C94941A0C94941A48
:100080000C94941A0C94941A0C94941A0C94941A38
:100090000C94941A0C94941A0C94941A0C94941A28
:1000A0000C94941A0C94941A0C94941A0C94941A18
:1000B0000C94941A000000000E00010000040F0EC2
:1000C00005F2080008070E03F30F000B120E02F1F1
:1000D00028000A140E02F041000A0F0E02F254002A
:1000E0000A0D0E02F4650003070E05F36800051300
:1000F0000E06F2740005130E03F280000A0A0E02C7
:10010000F28D000C0D0E01F4A10005070E04FEA6F1
:10011000000C020E01F9A90003030E05FEAB000A54
:10012000140E02F0C4000A0F0E02F2D7000A0F0EDE
:1001300002F2EA000A0F0E02F2FD000B0F0E01F2AE
:100140001201090E0E02F322010A0F0E02F235010E
:100150000A0F0E02F248010A0F0E02F25B010A0FAB
:100160000E02F26E010A0F0E03F28101030B0E055F
:10017000F68601040F0E04F68E010C0B0E01F59F9E
:10018000010C070E01F7AA010C0B0E01F5BB0109CA
:100190000E0E03F3CB010B130E02F2E6010F0E0E4F
:1001A000FFF301020D0E0E00F318020C0E0E01F308
:1001B0002D020C0E0E01F342020D0E0E00F3590239
:1001C0000D0E0E00F370020D0E0E01F387020E0EDF
:1001D0000E00F3A0020A0E0E02F3B2020D0E0E0183
:1001E000F3C9020E0E0E00F3E2020C0E0E01F3F73D
:1001F000020E0E0E00F310030D0E0E00F327030C7B
:100200000E0E01F33C030C0E0E00F351030C110E05
:1002100001F36B030E0E0E00F384030A0E0E02F3BD
:1002200096030C0E0E01F3AB030C0E0E01F3C0038C
:10023000100E0EFFF3DC030E0E0E00F3F5030E0E90
:100240000E00F30E040C0E0E01F323040A0E0E0230
:10025000F3350405130E06F241040A140E02F05A97
:100260000405130E03F266040A080E02F170040E70
:10027000020E0004740404040E04F176040C0B0E48
:1002800001F687040D0F0E00F2A0040C0B0E01F610
:10029000B1040D0F0E01F2CA040C0B0E01F6DB04C3
:1002A0000B0F0E02F2F0040D100E01F60A050E0FF0
:1002B0000E00F225050B0E0E01F3390508130F038E
:1002C000F34C050D0F0E01F265050B0F0E01F27ACE
:1002D000050F0B0E00F68F050E0B0E00F6A3050C96
:1002E0000B0E01F6B4050E100E00F6D0050E100E22
:1002F00000F6EC050C0B0E01F6FD050A0B0E02F6DE
:100300000B060B0E0E01F31F060D0B0E00F6310649
:100310000E0B0E00F645060E0B0E00F659060E0BE0
:100320000E00F66D060C100E01F685060B0B0E0185
:10033000F6950607130E03F2A60602130E06F2AB9D
:100340000607130E04F2BC060C040E01F9FFFFFFB2
:10035000F666606F60E7E76242424242118730C64C
:1003600018C331FFFFF998330660CC7FEFFC660CB1
:10037000C3986304400C0300C0FE7F9C660980782C
:100380000FE07F03E0F87FFBFC0C0300C030381F58
:100390000C4210C41F039C3C7F33E08C2108C3E057
:1003A000703E1FC66180700C0783EEDFB3CC73FE16
:1003B0007F80FD249039DCE67318C6318C318E3194
:1003C000C4E71CE31C6318C63198CE67100C030009
:1003D000C3B7FFDFE1E0FC330CC00600600600603D
:1003E000060FFFFFF06006006006006006003B9C01
:1003F000CE6200FFFFFFFF800040301C070380E05B
:10040000301C060380C070180E0301C060380E0156
:10041000001E0FC61B87C0F03C0F03C0F03C0F87C7
:10042000618FC1E01C0F0FC3B00C0300C0300C0380
:1004300000C0300C3FFFFC1F1FEE1F83C0C0703890
:100440001E0F0783C1E3F0FFFFFC3F0FF187006041
:100450000C0383E07C01C00C01803C0FFF9FC007B0
:100460000783C3E1B1D8CCC6E37FFFE061F8FC7F2E
:100470009FE60180601F87F98600C0300C03C1BF72
:10048000E7E007C7F3C1C060380EF3FEF1F83E0F96
:100490008371CFE1F0FFFFFC1F07018060380C0380
:1004A00001C060180E0300C01E1FEE1F03C0F0360F
:1004B00019FE7FB87C0F03E1DFE3F03E1FCE3B0760
:1004C000C1F07E3DFF3DC070180E0F3F8F80FF8052
:1004D00000FF8077700000766CC88000300F03E06A
:1004E000F83E0F803E00F803E00F0020FFFFFF0002
:1004F0000000000FFFFFF0600F803E00F803E01FD8
:1005000007C1F07C0F0040007C7FB0F830181C3C25
:100510003C180800070381C01E07F1C7306C0D8727
:10052000B3F6E6D8DB1B7367FC7F8030030071C72E
:10053000F87C003F807F801F007600EE018C07185A
:100540000E381FF07FF0C06180CFC7FF8FC0FFC79C
:10055000FF0C1C6063031838FF87FE303980CC061F
:10056000607FFF7FF00FF3FF707603C03C00C00C8C
:1005700000C00C006037073FF0FCFF0FFC60E60690
:1005800060360360360360360360760EFFCFF8FFF7
:10059000F7FF8C0C60631B18C0FE07F031818CCC18
:1005A00006603FFFFFFCFFFFFFCC0660331998C0D9
:1005B000FE07F031818C0C00600FF07F800FF1FF9F
:1005C0009C1CC06C03600300187FC3FE01B80CE0E4
:1005D000E3FF07E07CF9F3E3030C0C3030C0C3FF0A
:1005E0000FFC3030C0C3030C0CFCFFF3F0FFFFF036
:1005F000C0300C0300C0300C0300C030FFFFF00F10
:10060000F87FC03001800C0060031818C0C60630A7
:1006100031C30FF81F00FCFBF3E30E0C703380FCBA
:1006200003F00FE039C0C3030E0C18FC7FF0F0FF9D
:100630000FF01801801801801801801831831831DB
:1006400083FFFFFFF03FC0F7879E1E7CF9B3E6FDF6
:1006500099F667998E66319806FCFFF3F0F1FFCFAB
:10066000CF0C7863E31B18DCC67631B18F8C3C610C
:10067000E7E73F180F03FC70E606E07C03C03C038D
:10068000C03E0760670E3FC0F0FF8FFE307303303F
:1006900033033073FE3F8300300300FF0FF00F037E
:1006A000FC70E606E07C03C03C03C03E0760670EBA
:1006B0003FC1F01833FF3FE0FF83FF83070C0C308E
:1006C00030C1C3FE0FF031E0C383070C0CFE3FF8CE
:1006D000703FDFFE1F03C0F807E07E01F03C0F878C
:1006E000FFBFC0FFFFFFC63C63C63C630600600659
:1006F00000600600603FC3FCFFFFFF6066066066A7
:100700000660660660660660639C1FC0F0FC3FFCE6
:100710003F300C381C18181C381C380E700E700F27
:100720006007E007E003C003C0FCFFF3F601DCC68E
:100730007799DE67798DFE3FF8F3E3CF8F3C387011
:10074000E1C0F8FBE3E3860F381FC03E007003E012
:100750000F8077038E1E1CFCFFF3F0F9FF9F30C360
:100760009C1981F80F00600600600600603FC3FC22
:10077000FFBFEC3B0CC63380C06038CC360F03FFA4
:10078000FFF0FFF18C6318C6318C6318C7FE403050
:100790000E0180700C0380601C0300E0180700C08D
:1007A000380E01C0700C01FFC6318C6318C6318C45
:1007B000631FFE040301E0FC7B9C7E1F03FFFFFF21
:1007C000F0CE733F07F800C00C1FC7FC60CC0CC113
:1007D000CFFF3FF0F007800C0060037C1FF8F1C7EB
:1007E00007301980CC066073C77FFBDF001FB3FFA3
:1007F00070FE07C03C00C00C007077FF1FC001E016
:100800000F001800C1F63FF1C79C1CC066033019E9
:1008100081C71E3FFC7DE01F83FC70EE07FFFFFFDA
:10082000E00E007073FF1FC007C3FC600C0FFDFFDC
:100830008600C0180300600C0181FFBFF01F79FF24
:10084000DC7981CC066033019C1C71E1FF07D80084
:10085000C00600707F03F0F003C003000C0037C037
:10086000FF83C70C0C3030C0C3030C0C3033F3FFD4
:10087000CFC00600C0003F07E00C0180300600C07A
:1008800018030FFFFFC0060600FFFF030303030367
:1008900003030303030307FEFCF007800C0060035F
:1008A0003F19F8DE07E03E01F00FC06F031C78FF30
:1008B000C7E07E0FC0180300600C0180300600C046
:1008C00018030061FFFFF8FEF1FFF1CE6318C63197
:1008D0008C6318C6318C6319F7BFEF7877C1FF833B
:1008E000C70C0C3030C0C3030C0C3033F1FFC7C051
:1008F0001F83FC70EE07C03C03C03E0770E3FC1F83
:1009000080F7E3FFC3C38E07300CC03300CE073C33
:1009100038FFC37E0C003000C00FE03F801FBCFFDB
:10092000F70F381CC03300CC03381C70F0FFC1FB3C
:10093000000C003000C01FC07F79E7FF1F31C018D6
:100940000180180180180FFCFFC03F9FFE1F82FE30
:100950001FE0FF03E0FFFFF0300600C07FEFFC6008
:100960000C0180300600C01871FE1F00F1F78F8C5B
:100970000C6063031818C0C60638F0FFC3EEFCFF16
:10098000F3F3870E1C1C607380EC03F007801E00DD
:100990007800F87FE1F7398CE637B0FFC3FF07BC7A
:1009A0001CF0738186007CF9F3E3CF07F80FC01EBB
:1009B00000FC07383873F3FFCFC0F9FF9F70E30CDA
:1009C00039C1981981F80F00F00600600E00C0FFD1
:1009D0000FF07FCFF98E3380701C0701C670FFFFC8
:1009E000FF800E3C60C183060C39E3C0C183060C56
:1009F000183C38FFFFFFFFF0E1C0C183060C183040
:100A00003C7983060C1831E3803C37E767E61C002D
:100A1000000000003E5B4F5B3E3E6B4F6B3E1C3E5A
:100A20007C3E1C183C7E3C181C577D571C1C5E7F6E
:100A30005E1C00183C1800FFE7C3E7FF00182418ED
:100A400000FFE7DBE7FF30483A060E262979292622
:100A5000407F050507407F05253F5A3CE73C5A7F0C
:100A60003E1C1C08081C1C3E7F14227F22145F5F62
:100A7000005F5F06097F017F006689956A6060609C
:100A8000606094A2FFA29408047E040810207E20D7
:100A90001008082A1C08081C2A08081E101010102C
:100AA0000C1E0C1E0C30383E3830060E3E0E060072
:100AB0000000000000005F00000007000700147F36
:100AC000147F14242A7F2A1223130864623649569D
:100AD00020500008070300001C2241000041221C96
:100AE000002A1C7F1C2A08083E080800807030007D
:100AF0000808080808000060600020100804023E92
:100B00005149453E00427F400072494949462141D2
:100B1000494D331814127F1027454545393C4A4941
:100B20004931412111090736494949364649492980
:100B30001E00001400000040340000000814224190
:100B40001414141414004122140802015909063E19
:100B5000415D594E7C1211127C7F494949363E4114
:100B60004141227F4141413E7F494949417F090935
:100B700009013E414151737F0808087F00417F41D0
:100B8000002040413F017F081422417F4040404007
:100B90007F021C027F7F0408107F3E4141413E7F5F
:100BA000090909063E4151215E7F09192946264956
:100BB00049493203017F01033F4040403F1F20402D
:100BC000201F3F4038403F63140814630304780437
:100BD000036159494D43007F4141410204081020FF
:100BE000004141417F040201020440404040400076
:100BF0000307080020545478407F28444438384480
:100C0000444428384444287F385454541800087EFB
:100C1000090218A4A49C787F0804047800447D404D
:100C2000002040403D007F1028440000417F4000EC
:100C30007C047804787C080404783844444438FC04
:100C40001824241818242418FC7C08040408485488
:100C500054542404043F44243C4040207C1C204045
:100C6000201C3C4030403C44281028444C9090903C
:100C70007C4464544C440008364100000077000076
:100C8000004136080002010204023C2623263C1ED5
:100C9000A1A161123A4040207A3854545559215547
:100CA0005579412254547842215554784020545566
:100CB00079400C1E527212395555555939545454B5
:100CC0005939555454580000457C410002457D4235
:100CD0000001457C407D1211127DF0282528F07C12
:100CE000545545002054547C547C0A097F493249AC
:100CF0004949323A4444443A324A4848303A4141F8
:100D0000217A3A42402078009DA0A07D3D42424297
:100D10003D3D4040403D3C24FF2424487E494366FD
:100D20002B2FFC2F2BFF0929F620C0887E090320DA
:100D3000545479410000447D413048484A3238409B
:100D400040227A007A0A0A727D0D19317D262929FE
:100D50002F28262929292630484D40203808080800
:100D60000808080808382F10C8ACBA2F102834FA21
:100D700000007B000008142A142222142A140855AB
:100D800000550055AA55AA55AAFF55FF55FF00006A
:100D900000FF00101010FF00141414FF001010FFCB
:100DA00000FF1010F010F0141414FC001414F700DD
:100DB000FF0000FF00FF1414F404FC141417101FAC
:100DC00010101F101F1414141F00101010F000003A
:100DD00000001F101010101F10101010F010000055
:100DE00000FF101010101010101010FF1000000065
:100DF000FF140000FF00FF00001F10170000FC049C
:100E0000F414141710171414F404F40000FF00F77E
:100E100014141414141414F700F7141414171410E1
:100E2000101F101F141414F4141010F010F0000010
:100E30001F101F0000001F14000000FC140000F031
:100E400010F01010FF10FF141414FF141010101FD6
:100E500000000000F010FFFFFFFFFFF0F0F0F0F0E7
:100E6000FFFFFF0000000000FFFF0F0F0F0F0F3804
:100E700044443844FC4A4A4A347E02020606027E52
:100E8000027E0263554941633844443C04407E205D
:100E90001E2006027E020299A5E7A5991C2A492A6E
:100EA0001C4C7201724C304A4D4D303048784830FD
:100EB000BC625A463D3E494949007E0101017E2AF5
:100EC0002A2A2A2A44445F444440514A4440404428
:100ED0004A51400000FF0103E080FF000008086B5A
:100EE0006B083612362436060F090F060000181854
:100EF0000000001010003040FF0101001F01011E22
:100F000000191D1712003C3C3C3C00000000000092
:100F1000000000240027002A002D0000000000250A
:100F20000028002B002E00000000002300260029CE
:100F3000002C00040404040404040402020202025B
:100F4000020303030303030505050501020408105A
:100F5000204080010204081020010204081020042F
:100F6000080102090C0A080002010000030407003E
:100F700000000000000000000000004D03B400204D
:100F8000007E0018EA1B11241FBECFEFD8E0DEBFA1
:100F9000CDBF26E0A4EBB1E001C01D92AF34B20793
:100FA000E1F711E0A0E0B1E0EAEDFFE302C0059057
:100FB0000D92A43BB107D9F717E0C3ECD7E004C00A
:100FC0002197FE010E94CC1FC23CD107C9F70E94A5
:100FD000A61C0C94EB1F0C940000AF92BF92CF9212
:100FE000DF92EF92FF920F931F93CF93DF936C01E9
:100FF0007B018B01040F151FEB015E01AE18BF08CA
:10100000C017D10759F06991D601ED91FC9101907B
:10101000F081E02DC6010995892B79F7C501DF9193
:10102000CF911F910F91FF90EF90DF90CF90BF90E5
:10103000AF900895FC01538D448D252F30E0842F0F
:1010400090E0821B930B541710F0CF9608950197F0
:101050000895FC01918D828D981761F0A28DAE0FDD
:10106000BF2FB11D5D968C91928D9F5F9F73928F64
:1010700090E008958FEF9FEF0895FC01918D828D90
:10108000981731F0828DE80FF11D858D90E008955D
:101090008FEF9FEF0895FC01918D228D892F90E0B5
:1010A000805C9F4F821B91098F739927089587E376
:1010B00092E00E944B0821E0892B09F420E0822F66
:1010C0000895FC01A48DA80FB92FB11DA35ABF4FDD
:1010D0002C91848D90E001968F739927848FA68937
:1010E000B7892C93A089B1898C91837080648C938B
:1010F000938D848D981306C00288F389E02D80813A
:101100008F7D80830895EF92FF920F931F93CF936B
:10111000DF93EC0181E0888F9B8D8C8D98131AC032
:10112000E889F989808185FF15C09FB7F894EE8919
:10113000FF896083E889F989808183708064808376
:101140009FBF81E090E0DF91CF911F910F91FF90C1
:10115000EF900895F62E0B8D10E00F5F1F4F0F7369
:101160001127E02E8C8D8E110CC00FB607FCFACF24
:10117000E889F989808185FFF5CFCE010E94610859
:10118000F1CFEB8DEC0FFD2FF11DE35AFF4FF082F5
:101190009FB7F8940B8FEA89FB8980818062CFCF5B
:1011A000CF93DF93EC01888D8823B9F0AA89BB899E
:1011B000E889F9898C9185FD03C0808186FD0DC089
:1011C0000FB607FCF7CF8C9185FFF2CF808185FFAA
:1011D000EDCFCE010E946108E9CFDF91CF91089554
:1011E00080E090E0892B29F00E94570881110E942D
:1011F000000080E090E0892B49F080E090E0892BAE
:1012000029F00E94000081110C9400000895815083
:101210008D3008F03DC0E82FF0E0EF5EF64F0C9403
:10122000CC1F28092C091E092409480948092F093F
:10123000350939093F094809430949098091800066
:101240008F77809380000895809180008F7DF9CF03
:1012500084B58F7784BD089584B58F7DFBCF809151
:10126000B0008F778093B00008958091B0008F7D9B
:10127000F9CF809190008F778093900008958091AE
:1012800090008F7DF9CF8091A0008F778093A00090
:1012900008958091A0008F7DF9CFCF93DF93282F01
:1012A00030E0F901ED59F04F8491F901E55BF04F21
:1012B000D491F901ED5CF04FC491CC23A1F08111E0
:1012C0000E940709EC2FF0E0EE0FFF1FE95DF04FE1
:1012D000A591B491EC91ED2381E090E009F480E0D8
:1012E000DF91CF91089580E090E0FACF1F93CF93E4
:1012F000DF93282F30E0F901ED59F04F8491F90187
:10130000E55BF04FD491F901ED5CF04FC491CC2333
:10131000A9F0162F81110E940709EC2FF0E0EE0FC3
:10132000FF1FE55EF04FA591B4918FB7F894EC9153
:10133000111108C0D095DE23DC938FBFDF91CF91D0
:101340001F910895DE2BF8CFCF93DF9390E0FC013F
:10135000E55BF04F24918D5C904FFC0184918823D4
:10136000C9F090E0880F991FFC01E15FF04FA59153
:10137000B491FC01E55EF04FC591D49161110DC0AF
:101380009FB7F8948C91209582238C938881282391
:1013900028839FBFDF91CF910895623051F49FB7AA
:1013A000F8943C91822F809583238C93E8812E2B97
:1013B000EFCF8FB7F894EC912E2B2C938FBFEACF01
:1013C0003FB7F89480912B0290912C02A0912D02AE
:1013D000B0912E0226B5A89B05C02F3F19F00196AB
:1013E000A11DB11D3FBFBA2FA92F982F8827BC017F
:1013F000CD01620F711D811D911D43E0660F771FA6
:10140000881F991F4A95D1F708958F929F92AF92A6
:10141000BF92CF92DF92EF92FF926B017C010E940C
:10142000E0094B015C01C114D104E104F104B9F0FD
:101430000E94E009681979098A099B09683E73408E
:101440008105910580F321E0C21AD108E108F10875
:1014500088EE880E83E0981EA11CB11CE4CFFF909B
:10146000EF90DF90CF90BF90AF909F908F900895B6
:101470002091DC01260F3327331F21323105ECF494
:1014800020910002FC0190E080E0243069F082E0CD
:101490000895A091DC012191AC0144545E4FA40F4A
:1014A000B52FB11D2C930196861798F38091DC011E
:1014B000680F6093DC0180E0089581E0089508954D
:1014C0008FEF9FEF08958FEF9FEF08958091B50103
:1014D00090E09195819591090895CF93DF93CB0189
:1014E000EA01642F0E94380ACE01DF91CF9108955E
:1014F000CF93DF931F92CDB7DEB7698361E0CE0152
:1015000001960E94380A81E090E00F90DF91CF9120
:1015100008950895FC016370668B8481958126810E
:101520003781613039F0633029F0918780873387C4
:1015300022870895318720879387828708952F9285
:101540003F924F925F926F927F928F929F92AF9253
:10155000BF92CF92DF92EF92FF920F931F93CF93A0
:10156000DF93CDB7DEB76A970FB6F894DEBF0FBE34
:10157000CDBF9A8F898F7A8369834A01D22E1887CB
:101580000F833701BC2CDC0159962D913C915A9761
:101590002115310509F015C118968D919C91199767
:1015A000681779070CF0D7C11A968D919C9148174E
:1015B00059070CF0D0C14C2C512CB6E0CB9E600DDD
:1015C000711D11247C876B87161617060CF0C3C19A
:1015D000EA2DF0E0FA87E98793E0EE0FFF1F9A9576
:1015E000E1F7F88BEF87CF01840F951F18161906C6
:1015F0000CF0B1C1A98DBA8D58968C91811104C09F
:10160000BFEABD1508F4D394A98DBA8DED91FC9174
:1016100011970284F385E02DCD010995B5E0DB9E9D
:10162000C0011124E981FA81FC83EB83312C212C48
:101630009C01215F354F388F2F8B4A2D50E05E8BF8
:101640004D8BEF89F88DE20DF31D44919E828D82C2
:10165000D12CC12C69817A81620D731D7A8B698BC3
:10166000842F90E09C8B8B8BE98DFA8DA081B181CA
:1016700040FF82C0F1E0BF126FC0AF126DC01C9678
:10168000ED91FC912F813885A4014C0D5D1D698978
:101690007A89898D9A8D0995EB89FC89F595E7956D
:1016A0004E2F5FEFC51AD50A6D817E818D899E8987
:1016B000680F791F7E836D8398E0C916D10481F687
:1016C000AFEF2A1A3A0AEB81FC81E40DF51DFC8389
:1016D000EB83F5E02F16310409F0B3CF2F81388565
:1016E00026153705B9F0A98DBA8DED91FC91B1E0C1
:1016F000BB1257C0AB1255C069817A816B5F7F4FB7
:101700000088F189E02D830128E030E0A401898D73
:101710009A8D0995A98DBA8DED91FC911197068846
:10172000F789E02DCD016A960FB6F894DEBF0FBEA3
:10173000CDBFDF91CF911F910F91FF90EF90DF9080
:10174000CF90BF90AF909F908F907F906F905F9061
:101750004F903F902F9009941E96ED91FC91EF8051
:10176000F88409851A8592014D815E816B817C81A7
:10177000898D9A8D099590CF2F813885261537054B
:1017800009F48ACF31E0B31207C0A31205C01C963A
:10179000ED91FC91930178CF1E96ED91FC91730130
:1017A000E0CF6B857C85641975090684F785E02D8B
:1017B00073010F8518899201A401898D9A8D09956D
:1017C000A9CFF90134969491329745915491D91A41
:1017D000B7E0DB9E400D511D1124F9012591349194
:1017E0003C8B2B8BFA0125903490FA013296749041
:1017F00031963491398B329664903196449041E021
:101800004C1518F04A1508F07FC0662D062C000C08
:10181000770B7C836B83842D042C000C990B9E83A7
:101820008D83A98DBA8DED91FC9111970284F3857A
:10183000E02DCD010995512CD12CC12CEA2DF0E0E1
:10184000FA87E9872B2D30E03C872B87A401440DD4
:10185000511D47FC5A95588F4F8B69817A81660DCF
:10186000711D67FC7A957E876D877989C71608F0A8
:1018700051CF2C2D30E04D815E81420F531FA98541
:10188000BA854A9FC0014B9F900D5A9F900D11241D
:10189000FC01E80DF91DF88BEF87852D612C4F8930
:1018A000588D420F531F5E8B4D8B671408F050C04C
:1018B00044244394480E877041F4C1010196EB899A
:1018C000FC89E20DF31DD4901C01D7FE19C0A98D2F
:1018D000BA8DED91FC91662D70E0B1E0BB1219C09C
:1018E000AB1217C02D853E85620F731F0484F585EA
:1018F000E02D2F8138854D895E89898D9A8D0995D6
:10190000DD0C6394842DD1CF1E821D821C821B822C
:1019100088CF4B815C81640F751FAB85BC856A9F46
:10192000C0016B9F900D7A9F900D112469817A817F
:10193000680F791F0684F785E02DEF80F88409850C
:101940001A859D014F855889898D9A8D0995D8CF23
:10195000570CC3948ACF6A960FB6F894DEBF0FBEB9
:10196000CDBFDF91CF911F910F91FF90EF90DF904E
:10197000CF90BF90AF909F908F907F906F905F902F
:101980004F903F902F9008958F929F92AF92CF9259
:10199000EF92FF920F931F93CF93DF93EC01262FCB
:1019A000898D9A8D009709F051C06A30D1F41D8657
:1019B0001C868D8948E0849F900111248E859F8527
:1019C000820F931F9F878E8781E090E0DF91CF91F8
:1019D0001F910F91FF90EF90CF90AF909F908F90BD
:1019E00008956D3089F3CC88AD888F898823C1F044
:1019F0008C859D8536E0C39E800D911D1124488500
:101A000059854817590764F44E855F851D861C86E5
:101A100038E0A39EC0011124840F951F9F878E87F5
:101A2000EA88FB88088919894E855F856C857D85E4
:101A3000CE010E949F0A2C898C859D8546E0249FBB
:101A4000800D911D11249D878C87BECF6A3069F46B
:101A50001D861C86FC013896E4912D898E859F8514
:101A6000E29F800D911D1124ADCF6D3009F4ACCFF4
:101A7000FC0134963491631708F4A6CF3296E491B2
:101A8000E61708F4A1CFFC01329685909490462F7A
:101A9000431B342F47E0349F800C911C1124F40128
:101AA000329634913196E4913323A9F1EE2399F1E2
:101AB000CC88F4013596E491AD884F89442301F137
:101AC0000E2E000CFF0BE30FF11DCE9EA001CF9E4A
:101AD000500D11246C857D85460F571F68857985CB
:101AE000641775076CF44E855F851D861C86FC01A6
:101AF0003896E491AE9E400D511D11245F874E87AC
:101B0000EA88FB88088919894E855F856C857D8503
:101B1000CE010E949F0AF4013496E4912C898C85B1
:101B20009D85E29F800D911D11248DCF6F927F9234
:101B30008F929F92AF92BF92CF92DF92EF92FF92DD
:101B40000F931F93CF93DF93EC016B015A0139017F
:101B50004801E881F9810284F385E02D0995E88147
:101B6000F9810288F389E02D87019301A501B6016F
:101B7000CE010995A501480D591D41505109E88133
:101B8000F9810288F389E02D9301B601CE01099510
:101B9000E881F9810088F189E02D9401A501B60161
:101BA000CE010995C60CD71CB60161507109E881B8
:101BB000F9810088F189E02D9401A501CE010995F4
:101BC000E881F9810688F789E02DCE01DF91CF9178
:101BD0001F910F91FF90EF90DF90CF90BF90AF904B
:101BE0009F908F907F906F9009946F927F928F92C9
:101BF0009F92AF92BF92CF92DF92EF92FF920F939C
:101C00001F93CF93DF935C01EB016A014901380117
:101C10008701DC01ED91FC916217730719F56416D9
:101C200075062CF0962D872D3A01C92ED82E9601D7
:101C3000261937092F5F3F4F048CF58DE02DA30146
:101C4000BE01C5010995DF91CF911F910F91FF90C2
:101C5000EF90DF90CF90BF90AF909F908F907F904C
:101C60006F9008954615570591F42617370724F00D
:101C7000892D4B01C22FD82F9E01281939092F5FBA
:101C80003F4F068CF78DE02DA601B401DACF028418
:101C9000F385E02D0995D501ED91FC910488F58936
:101CA000E02D83019401A601BE01C5010995D5016E
:101CB000ED91FC910688F789E02DC501DF91CF9168
:101CC0001F910F91FF90EF90DF90CF90BF90AF905A
:101CD0009F908F907F906F900994EF92FF920F9357
:101CE0001F93DC011A960D911C911B9718962D914C
:101CF0003C911997ED91FC9100A0F1A1E02D7B01A1
:101D000050E040E070E060E009951F910F91FF9076
:101D1000EF9008954F925F926F927F928F929F9271
:101D2000AF92BF92CF92DF92EF92FF920F931F93E9
:101D3000CF93DF936C012B015A0139014801DC017B
:101D4000ED91FC910284F385E02D0995E201640C8C
:101D5000751CD601ED91FC91C615D7055CF4008881
:101D6000F189E02D87019401A501BE01C601099505
:101D70002196EFCF0688F789E02DC601DF91CF913C
:101D80001F910F91FF90EF90DF90CF90BF90AF9099
:101D90009F908F907F906F905F904F9009948F925B
:101DA0009F92AF92BF92CF92DF92EF92FF920F93EA
:101DB0001F93CF93DF93EC015B014A016901E88136
:101DC000F9810284F385E02D099595012C0D3D1DC7
:101DD00021503109E881F9810488F589E02D7801E5
:101DE0008401A401B501CE010995E881F981068835
:101DF000F789E02DCE01DF91CF911F910F91FF90D8
:101E0000EF90DF90CF90BF90AF909F908F9009940C
:101E10008F929F92AF92BF92CF92DF92EF92FF92FA
:101E20000F931F93CF93DF93EC015B014A0169018C
:101E30007801E881F9810284F385E02D0995C80CC9
:101E4000D91C860101501109E881F9810488F589BE
:101E5000E02D9501A401B501CE010995E881F98134
:101E60000688F789E02DCE01DF91CF911F910F9168
:101E7000FF90EF90DF90CF90BF90AF909F908F90AA
:101E80000994EF92FF920F931F93DC01ED91FC9167
:101E900000A0F1A1E02D09951F910F91FF90EF9007
:101EA00008950F931F93DC01ED91FC91068CF78D43
:101EB000E02D09951F910F9108950F931F93DC0159
:101EC000ED91FC91048CF58DE02D09951F910F91FA
:101ED0000895DC01ED91FC910084F185E02D0994D9
:101EE0002F923F924F925F926F927F928F929F922A
:101EF000AF92BF92CF92DF92EF92FF920F931F9318
:101F0000CF93DF9300D000D000D0CDB7DEB73C0137
:101F10006A013E832D83FC82EB825801A41AB50A24
:101F2000B7FE03C0B194A194B1088D809E80861A3B
:101F3000970A97FE03C09194819491088A149B0498
:101F40005CF0902F812F0D811E819D838E839C2DAF
:101F50008D2D6B01692F782F0C151D055CF09D816F
:101F60008E817E836D83692F782F902F812F86013C
:101F7000C92ED82E1601201A310A2B012D813E813F
:101F8000421A530A57FE03C05194419451087101FB
:101F900037FE03C03FEFE31AF30AF594E7948D810F
:101FA0009E81861797075CF5A1E0B0E0BA83A9830C
:101FB000C016D1064CF1D301ED91FC910484F58556
:101FC000E02D2B813C81A8016D817E818A149B04C8
:101FD0001CF04D815E81B801C3010995E418F50834
:101FE000F7FE0AC02D813E8189819A81280F391F11
:101FF0003E832D83E20CF31C0F5F1F4FD9CF2FEFD1
:102000003FEF3A832983D4CF26960FB6F894DEBFEC
:102010000FBECDBFDF91CF911F910F91FF90EF9039
:10202000DF90CF90BF90AF909F908F907F906F90F8
:102030005F904F903F902F900895CF93DF93FC01D6
:102040002785308937FD22C0EC01828D882309F174
:1020500060E0822F0E94760961E08F850E94A409CA
:102060006CA17DA190E080E00E94050A62E08F856E
:102070000E94A4096CA17DA16A30710510F46AE088
:1020800070E090E080E00E94050A1BA2DF91CF91F2
:10209000089561E0822F0E94760961E08F850E9499
:1020A000A4096AE070E080E090E00E94050A60E028
:1020B0008F850E9476096CA17DA190E080E00E944E
:1020C000050A61E08F850E947609D4CF8F929F9296
:1020D000AF92BF92EF920F931F93CF93DF93EC01D8
:1020E0004A015B012F8F28A3EA8E19A21AA21BA214
:1020F0001DA30CA381149104A104B10409F45FC0D1
:1021000060E874E88EE190E0A50194010E948B1FC5
:102110002150310941095109569547953795279521
:10212000E0914702F091480282E08083211580E12E
:102130003807A8F0E0914702F0914802108260E46D
:1021400072E48FE090E0A50194010E948B1F215062
:102150003109410951095695479537952795E091E1
:102160004302F09144023083E0914502F09146022F
:10217000208310924F02E0914B02F0914C0286E0D6
:102180008083E0914902F0914A02808180618083DE
:10219000E0914902F0914A02808188608083E09159
:1021A0004902F0914A02808180688083E09149026F
:1021B000F0914A0280818F7D808381E0898F8B85B9
:1021C0009C8597FD07C061E00E94760961E08B85E0
:1021D0000E94A4098D859E8597FD07C061E00E943D
:1021E000760961E08D850E94A409CE010E941D1030
:1021F00089899A8997FD03C060E00E94A409BFB64F
:10220000F8948091B401811127C0EDE3FFE084913F
:10221000E5E5FFE09491E82FF0E0EE0FFF1FE15FAE
:10222000F04FA591B491EC91E92321F461E08AE0AB
:102230000E94760961E08AE00E94A4098CB5806161
:102240008CBD8CB580648CBD61E08DE00E94A409DA
:1022500061E08BE00E94A4098091B4018F5F8093BC
:10226000B401BFBE89899A890C9769F460E08CE05B
:10227000DF91CF911F910F91EF90BF90AF909F9002
:102280008F900C94A409DF91CF911F910F91EF9043
:10229000BF90AF909F908F900895EF920F931F93F0
:1022A000DC01ED91FC910280F381E02DE12C0AE04C
:1022B00010E021E009951F910F91EF900895089586
:1022C0008CBD9DBD08951F93CF93DF93EC01162F16
:1022D0008D8D9E8D0E9460118B859C8597FD03C01E
:1022E00060E00E9476091EBD00000DB407FEFDCF20
:1022F0008EB58B859C8597FD06C061E0DF91CF91FF
:102300001F910C947609DF91CF911F9108951F932F
:10231000CF93DF93EC01162F8D8D9E8D0E9460115F
:102320008D859E8597FD03C060E00E9476098B85B0
:102330009C8597FD03C060E00E9476091EBD0000E9
:102340000DB407FEFDCF8EB58B859C8597FD03C030
:1023500061E00E9476098D859E8597FD06C061E04B
:10236000DF91CF911F910C947609DF91CF911F914E
:102370000895AF92BF92CF92DF92EF92FF920F93A8
:102380001F93CF93DF93EC015B016A012150310968
:102390007901E60EF71E01501109040F151F64E4C0
:1023A0000E94871183E0B694A7948A95E1F76A2D7D
:1023B000CE010E946311B70193E0769567959A95D7
:1023C000E1F7CE010E94631165E4CE010E948711FE
:1023D0006C2DCE010E9463116D2DCE010E94631100
:1023E000602FCE010E946311612FCE010E94631104
:1023F0006EE4CE010E9487116A2DCE010E94631106
:102400006FE4CE010E9487116C2DCE010E946311F2
:102410006D2DCE01DF91CF911F910F91FF90EF9025
:10242000DF90CF90BF90AF900C9463110F931F93E8
:10243000CF93DF93DC0177FDAFC018968D919C910F
:102440001997681779070CF0A7C057FDA5C01A9611
:10245000ED91FC911B974E175F070CF09DC0FD019D
:10246000E959FC4FE081EE2331F0FC01E61BF70B4C
:10247000BF016150710956968C915697823009F4CC
:1024800090C0833009F4A2C0813051F414968D912C
:102490009C911597841B950BAB01BC016150710990
:1024A000FD01EE58FC4F80819181681B790B77FD0F
:1024B00073C0349680819181681779070CF06CC0E5
:1024C00032970190F081E02D4E1B5F0B57FD64C0E9
:1024D000FD01E858FC4F0190F081E02D4E175F0799
:1024E0000CF05AC0FD01E059FC4F0190F081E02D45
:1024F000ED01C459DC4F08811981E09FE001E19FA3
:10250000D00DF09FD00D11244C1B5D0B57FD44C026
:102510004E175F070CF040C0E3E096958795EA956B
:10252000E1F7849FF001859FF00D949FF00D112439
:10253000AB0177FF02C0495F5F4F83E05595479538
:102540008A95E1F7E40FF51FEA0FFB1FEF01CB5B64
:10255000DF4F1881CB0168E070E00E94771F67E0D1
:1025600070E0681B790B41E050E001C0440F6A95B0
:10257000EAF7812F842B8883DF01AB52BE4F8C9109
:10258000982F942B9C932F3F320731F02115310562
:1025900041F5409541234883DF91CF911F910F91E1
:1025A000089514968D919C911597FC01E61BF70BED
:1025B000BF016150710916968D919C911797FC018E
:1025C000E41BF50BAF01415051096ACF16968D916E
:1025D0009C911797861B970BBA01AC01415051098A
:1025E0005FCF211598EF390719F0203E3F4FA1F634
:1025F000EB52FE4F409548234083CECF9C016F3F66
:102600007607F9F09FEF80E06115710561F090E0C9
:10261000611588EF780731F091E0603E7F4F09F453
:1026200090E091958FEFF901EB5BFF4F2B523E4FFE
:102630008193DF01A157BE4F9C93E217F307C1F7C7
:1026400008959FEFEFCF93B7917F892B83BF83B717
:10265000816083BF83B7816083BF889583B78E7F96
:1026600083BF83B78E7F83BF089560E081E10E94BE
:10267000760980E00E94231361E081E10C947609E1
:1026800008956F927F928F929F92AF92BF92CF9256
:10269000DF92EF92FF920F931F93CF93DF93CDB70B
:1026A000DEB7A989BA89FC0160807180FD89FF933A
:1026B000FC89FF93FB89FF93BF93AF93D3011C96D3
:1026C000ED91FC9109950F900F900F900F900F9046
:1026D000DF91CF911F910F91FF90EF90DF90CF90FE
:1026E000BF90AF909F908F907F906F9008958F9242
:1026F000AF92CF92EF92FF920F931F93CF93DF93FE
:10270000CDB7DEB7DC01ED91FC910084F185E02DC1
:102710000995DF91CF911F910F91FF90EF90CF908E
:10272000AF908F900895DC01ED91FC910680F781C8
:10273000E02D099490E080E008950E94E61FFB01DF
:1027400001900020E9F73197AF01461B570BDC01E0
:10275000ED91FC910280F381E02D09948F929F927C
:10276000AF92BF92EF92FF920F931F93CF93DF939D
:10277000CDB7DEB7A1970FB6F894DEBF0FBECDBFC1
:102780007C01FA01CB0119A2223008F42AE08E0163
:102790000F5D1F4F822E912CB12CA12CBF01A501E2
:1027A00094010E948B1FF901CA016A300CF5605D2B
:1027B000D8016E938D01232B242B252B79F790E0E4
:1027C00080E0109721F0BD01C7010E949F13A196E0
:1027D0000FB6F894DEBF0FBECDBFDF91CF911F9132
:1027E0000F91FF90EF90BF90AF909F908F900895C2
:1027F000695CDECF8F929F92AF92BF92CF92DF92B1
:10280000EF92FF920F931F93CF93DF93FC012189E7
:10281000328937FD7CC08B01EC0161E070E080E023
:1028200090E00E94050A0E94E0096B017C01898901
:102830000E944D092B893C898217930759F5EEA117
:10284000FFA1309709F45CC088A599A509958989ED
:102850000E944D092B893C8982179307D9F40E9465
:10286000E0096C197D098E099F098D889E88AF88C3
:10287000B88C86169706A806B906C8F661E771E017
:1028800087E392E00E949F136FE771E087E392E095
:102890000E949F130115110509F44AC0898D8823F0
:1028A00009F446C00E94E0099B01AC012C193D09C6
:1028B0004E095F0969017A01B80187E392E00E943D
:1028C0009F1362E871E087E392E00E949F132AE081
:1028D000B701A60187E392E00E94AE136FE771E0B3
:1028E00087E392E0DF91CF911F910F91FF90EF90DE
:1028F000DF90CF90BF90AF909F908F900C949F13DC
:1029000061E070E080E090E00E94050AA0CFBA018B
:1029100090E080E0DF91CF911F910F91FF90EF90B9
:10292000DF90CF90BF90AF909F908F900C94050A4E
:10293000DF91CF911F910F91FF90EF90DF90CF909B
:10294000BF90AF909F908F900895CF93DF93EC014D
:1029500062E20E94871167EFCE010E94631160E27C
:10296000CE010E94871140EB56E366E871E0CE018C
:10297000DF91CF910C94FA13CF93DF93EC0162E2D5
:102980000E94871167EFCE010E94631160E2CE01C1
:102990000E94871140EB56E363E971E0CE01DF91BD
:1029A000CF910C94FA130F931F93662391F0DC01DF
:1029B000ED91FC910688F789E02D08EC10E028ECF9
:1029C00030E050E040E070E060E009951F910F9129
:1029D00008951F910F910C94BC140F931F93CF93E4
:1029E000DF93EC018BA1882319F0CE010E941D100A
:1029F00062E1CE010E94871144E650E070E060E0A1
:102A0000CE010E94FA1361E0CE010E94871167ECAB
:102A1000CE010E94631160E0CE010E94631160E06C
:102A2000CE010E94631161E1CE010E94871163E033
:102A3000CE010E9463116CE3CE010E94871167E012
:102A4000CE010E94631168E1CE010E94871160E807
:102A5000CE010E94631108EC10E028EC30E050E059
:102A600040E070E060E0CE010E94B91189A18111BF
:102A700013C062E2CE010E94871160ECCE010E9479
:102A8000631160E2CE010E94871144E650E060EAE3
:102A900071E0CE010E94FA1381E089A3DF91CF910A
:102AA0001F910F910895AF92BF92CF92DF92EF9254
:102AB000FF920F931F93CF93DF935C0177FF02C0C8
:102AC000260F371F57FF02C0040F151FEB0177FFBA
:102AD00002C0D0E0C0E07A0157FF02C0F12CE12C27
:102AE000C9018C0F9D1F883C910524F028EC30E033
:102AF0002C1B3D0BC8018E0D9F1D883C910524F0B9
:102B000008EC10E00E191F091216130654F51016E2
:102B100011063CF56E0187E0C822DD24C20ED31EEB
:102B2000C60187709927009729F0C81AD90AC601EB
:102B300008966C01C5010E94ED14BE01687F9601E4
:102B4000A701C5010E94B911C501DF91CF911F9165
:102B50000F91FF90EF90DF90CF90BF90AF900C94CB
:102B6000A514DF91CF911F910F91FF90EF90DF900F
:102B7000CF90BF90AF9008952F923F924F925F9267
:102B80006F927F928F929F92AF92BF92CF92DF927D
:102B9000EF92FF920F931F93CF93DF93CDB7DEB7E2
:102BA0002D970FB6F894DEBF0FBECDBF1C017A87FC
:102BB00069872A0139011A8309830AA11BA14CA143
:102BC0004B875DA15C878EA18D87D1015F968C912B
:102BD0005F97882341F0ED91FC910680F781E02D0D
:102BE0006FEFC101099561E070E080E090E00E9424
:102BF000050AE981FA81F7FD31C1F7FC2FC197FC85
:102C00002DC117FD2BC157FC29C14E165F060CF0D4
:102C100025C177FC23C16E147F040CF01FC19701FE
:102C200026193709021713070CF49801C60168E04A
:102C300070E00E94771FC81AD90AC201887F4981B3
:102C40005A81481B590BCA01841695060CF4C4011D
:102C50004C0157E0850E911C97FE04C04C01AEE07C
:102C60008A0E911CB8EF8B22DC82CB82D7FE02C089
:102C70001C821B82C601880D991D883C91052CF091
:102C8000E8EC8E2E912C8C189D08C501820F931FA5
:102C9000883C910524F028EC30E02A193B09EB81AF
:102CA000FC81EC19FD09F887EF838E1A9F0A18142E
:102CB00019040CF0D3C06501B7FE02C0D12CC12CA1
:102CC000A6014A195B095A01C901841B950B9E8311
:102CD0008D83181619060CF0C1C0D10192968C9103
:102CE000811103C0C1010E94ED140D811E81940168
:102CF000A6016B817C81C1010E94B91164E2C1010E
:102D00000E948711F40163E0F595E7956A95E1F774
:102D1000FC83EB83920173E0359527957A95E1F773
:102D20008F81988597FD079643E0959587954A95FD
:102D3000E1F709811A81095F1F4F53E01595079547
:102D40005A95E1F7D12CC12CA3014A0D5B1D5A8382
:102D500049832701461857084A185B0851E0451A6D
:102D600051085901A80EB91E89819A818C0D9D1DAB
:102D7000809F3001819F700C909F700C1124C201C4
:102D80008C199D09809F4001819F900C909F900C11
:102D90001124F12CE12C6A0C7B1C8A0C9B1C8B816E
:102DA0009C818E159F05D9F09C85F401911101C07D
:102DB000F301EE0DFF1DA985BA85EA0FFB1FBD8546
:102DC000BB2359F06491EB85E1116095C1010E942C
:102DD0006311FFEFEF1AFF0AE2CF6081F4CF4FEFEC
:102DE000C41AD40A8D819E818C159D0509F0BCCF33
:102DF00066E2C1010E94871110E000E0B12CA12C15
:102E0000EA14FB0441F060E0C1010E9463119FEFEE
:102E1000A91AB90AF5CF0F5F1F4FC016D10671F777
:102E200061E070E080E090E02D960FB6F894DEBF90
:102E30000FBECDBFDF91CF911F910F91FF90EF900B
:102E4000DF90CF90BF90AF909F908F907F906F90CA
:102E50005F904F903F902F900C94050A2D960FB6DF
:102E6000F894DEBF0FBECDBFDF91CF911F910F91C0
:102E7000FF90EF90DF90CF90BF90AF909F908F909A
:102E80007F906F905F904F903F902F9008952F927A
:102E90003F924F925F926F927F928F929F92AF92EA
:102EA000BF92CF92DF92EF92FF920F931F93CF9337
:102EB000DF93CDB7DEB72B970FB6F894DEBF0FBE0A
:102EC000CDBF1C017E836D8358874F833901A9864E
:102ED0008A8628A12B87DC015F968C915F978823D7
:102EE00041F0ED91FC910680F781E02D6FEFC1017B
:102EF000099561E070E080E090E00E94050AC7015A
:102F0000079697FD0796FC0133E0F595E7953A950E
:102F1000E1F7FA83E983C30168E070E00E94771F5C
:102F2000681A790A2F0143E0440C551C4A95E1F7D1
:102F3000730177FE02C0F12CE12CC301840D951DB5
:102F4000883C91052CF028EC422E512C461857084D
:102F5000C8018C0D9D1D883C91050CF47BC088EC4C
:102F600090E0801B910B4701861897084818590874
:102F7000141415040CF0DCC0380117FF02C0712CCA
:102F8000612C5301A01AB10A9C012A193B093C8308
:102F90002B83121613060CF0CBC0C1010E94ED1456
:102FA0000B811C819201A301B701C1010E94B911DB
:102FB00064E2C1010E94871193E0559447949A9569
:102FC000E1F797FE03C037E0830E911C83E09594F0
:102FD00087948A95E1F781E0C81AD108CA18DB08FE
:102FE000A981BA81CA9E7001CB9EF00CDA9EF00CCA
:102FF0001124E80CF91CAA9E8001AB9E100DBA9E0C
:10300000100D1124080D191D38014701B12CA12CF8
:10301000D12CC12C4C145D0429F1ED81FE816FEFA0
:10302000EF2B89F0FA85FF23B9F0F601E80DF91DC1
:103030002D813E81E20FF31F3B85332389F064919C
:10304000898581116095C1010E9463119FEFC91AA2
:10305000D90AE0CFC60187CFF601E60DF71DE8CF0C
:103060006081EECFAFEFAA1ABA0AE981FA818E1A0F
:103070009F0A6E0E7F1E2B813C812A153B0541F66F
:1030800066E2C1010E948711712C612C912C812C68
:10309000C814D90419F18F8198856FEF892B89F0B5
:1030A0009A85F4019923A9F0EE0DFF1DAF81B88533
:1030B000EA0FFB1FBB85BB2379F06491E985E11121
:1030C00060956095C1010E946311FFEF8F1A9F0AFE
:1030D000DFCFE00FF11FEACF6081F0CF2FEF621A50
:1030E000720A89819A81E81AF90A080F191FA61431
:1030F000B70461F661E070E080E090E02B960FB6D7
:10310000F894DEBF0FBECDBFDF91CF911F910F911D
:10311000FF90EF90DF90CF90BF90AF909F908F90F7
:103120007F906F905F904F903F902F900C94050A86
:103130002B960FB6F894DEBF0FBECDBFDF91CF91B7
:103140001F910F91FF90EF90DF90CF90BF90AF90C5
:103150009F908F907F906F905F904F903F902F90B7
:1031600008958F92AF92CF92DF92EF92FF920F93DA
:103170001F93CF93DF93CDB7DEB78F928A2CAC2C01
:103180006701780189019A0150E040E00E944717E9
:103190000F90DF91CF911F910F91FF90EF90DF90F3
:1031A000CF90AF908F900895FF920F931F93CF937E
:1031B000DF93EC01F62E1F8E0E94ED1408EC10E058
:1031C00028EC30E050E040E070E060E0CE010E948A
:1031D000B91164E2CE010E94871110E000E06F2D6A
:1031E000CE010E9463110F5F1F4F083883E118075B
:1031F000B1F766E2CE010E94871110E000E060E0C6
:10320000CE010E9463110F5F1F4F083883E118073A
:10321000B1F7DF91CF911F910F91FF900895FF9229
:103220000F931F93CF93DF93EC01F62E1F8E0E9416
:10323000ED1408EC10E028EC30E050E040E070E0E5
:1032400060E0CE010E94B91164E2CE010E948711B4
:1032500010E000E06F2DCE010E9463110F5F1F4F41
:10326000083883E11807B1F766E2CE010E948711A2
:1032700010E000E060E0CE010E9463110F5F1F4F7D
:10328000083883E11807B1F7CE01DF91CF911F9184
:103290000F91FF900C94A514CF93DF93EC0162E2A1
:1032A0000E94871163ECCE010E94631160E2CE019F
:1032B0000E9487114AEF50E069EA71E0CE010E9456
:1032C000FA1319A2DF91CF9108950C944C19CF9362
:1032D000DF93EC010E944C198F85988997FD0AC0F5
:1032E00060E1CE010E94871161E0CE010E9463116E
:1032F00081E08BA3DF91CF9108951F93CF93DF934C
:1033000085ED8093BC008091B8019091B901A091A6
:10331000BA01B091BB010796A11DB11D23E0B6957E
:10332000A795979587952A95D1F72091BC0024FD04
:1033300003C01092000252C04091B8015091B901EF
:103340006091BA017091BB01452B462B472B69F365
:103350000097A105B10541F02AE12A95F1F700C0D7
:103360000197A109B109E1CF8091B701C1E0C093F4
:10337000B601882399F1D091B8001091BA008091DC
:10338000BC008A7B8093BC0060E082E10E947609E9
:1033900060E083E10E94760910920002C09302026D
:1033A0001092010261E082E10E94760961E083E10E
:1033B0000E9476098091B9008E7F8093B900809138
:1033C000B9008D7F8093B90080E28093B80085E4D6
:1033D0008093BC001093BA00D093B800DF91CF91D6
:1033E0001F9108951F920F920FB60F9211242F93E1
:1033F0003F934F935F936F937F938F939F93AF937D
:10340000BF93EF93FF9387E392E00E946108FF91DF
:10341000EF91BF91AF919F918F917F916F915F914C
:103420004F913F912F910F900FBE0F901F901895C5
:103430001F920F920FB60F9211242F938F939F9389
:10344000EF93FF93E0914702F09148028081E09171
:103450004D02F0914E0282FD1BC09081809150027E
:103460008F5F8F7320915102821741F0E0915002DB
:10347000F0E0E95CFD4F958F80935002FF91EF9152
:103480009F918F912F910F900FBE0F901F901895C5
:103490008081F4CF1F920F920FB60F9211242F93B9
:1034A0003F938F939F93AF93BF9380912702909107
:1034B0002802A0912902B0912A023091260226E02A
:1034C000230F2D3758F50296A11DB11D209326021A
:1034D0008093270290932802A0932902B0932A0296
:1034E00080912B0290912C02A0912D02B0912E027E
:1034F0000196A11DB11D80932B0290932C02A093E5
:103500002D02B0932E02BF91AF919F918F913F9169
:103510002F910F900FBE0F901F90189529E8230F41
:103520000396A11DB11DD2CF0C94EB071F920F92F1
:103530000FB60F9211242F933F934F935F936F9386
:103540007F938F939F93AF93BF93EF93FF9380915C
:10355000B900887F803609F44AC0F0F5883209F452
:10356000A5C018F5803109F499C0B8F4882309F48E
:10357000F5C0883009F492C0FF91EF91BF91AF91EF
:103580009F918F917F916F915F914F913F912F917B
:103590000F900FBE0F901F901895883109F486C0C8
:1035A000803251F78093FF0114C0803409F49BC02E
:1035B00040F48033B9F38833F9F68093FF0185EC4A
:1035C000AEC0803509F483C0883509F494C08834CE
:1035D00099F60E947D19D0CF883909F48AC038F550
:1035E000883729F050F4883611F0803729F683E0C7
:1035F000809300021092FE0155C0883809F479C00A
:10360000803919F0803809F0B7CF8091FE018032FF
:1036100008F06FC0E091FE0181E08E0F8093FE0103
:103620008091BB00F0E0E252FE4F80833BC0803BC4
:1036300039F0D0F4803A09F477C0883A09F09CCF89
:1036400084E0809300021092DD011092DC01F0E032
:10365000E0E009958091DC0181110FC081E0809349
:10366000DC011092BC0109C0803C09F4A8CF883C61
:1036700009F4A5CF883B09F07FCFE091DD0181E01F
:103680008E0F8093DD01F0E0E454FE4F8081809343
:10369000BB009091DD018091DC0129C08091250261
:1036A0008093BB0085EC8093BC0066CF9091240290
:1036B00080912302981758F5E091240281E08E0F43
:1036C00080932402F0E0ED5FFD4F8081E9CFE0912F
:1036D000240281E08E0F809324028091BB00F0E0F1
:1036E000ED5FFD4F80839091240280912302981713
:1036F000C8F285E8D8CFE091240281E08E0F809354
:1037000024028091BB00F0E0ED5FFD4F808380914B
:10371000020281115ECF81E08093010284EA8093EE
:10372000BC001092000228CF85EC8093BC00109260
:1037300000028091FE01803230F4E091FE01F0E061
:10374000E252FE4F10826091FE0170E08EED91E03A
:10375000F0E0E0E009951092FE010ECF1092FF011B
:1037600038CF1F920F920FB60F9211248F939F9311
:10377000AF93BF9380912F0290913002A0913102BC
:10378000B09132020196A11DB11D80932F0290933A
:103790003002A0933102B0933202BF91AF919F915A
:1037A0008F910F900FBE0F901F9018951F920F9240
:1037B0000FB60F9211240F900FBE0F901F90189507
:1037C0001F920F920FB60F9211240F900FBE0F9001
:1037D0001F901895E7E3F2E01382128288EE93E0DF
:1037E000A0E0B0E084839583A683B78385E191E070
:1037F0009183808385EC90E09587848784EC90E0CA
:103800009787868780EC90E0918B808B81EC90E0AD
:10381000938B828B82EC90E0958B848B86EC90E08E
:10382000978B868B118E128E138E148EE5EDF2E03F
:103830001382128288EC90E0958384839783868339
:103840009187808793878287168A158614861786C4
:10385000168621E0258B248B4FEF5FEF538B428B35
:10386000518B408B278B108E128E118E47E251E0C8
:1038700051834083968F858F90A3878F44E250E0D9
:1038800052A341A323A324A315A249E050E057A3C8
:1038900046A348E050E051A740A747E050E053A7B7
:1038A00042A746E050E055A744A741E050E057A7A3
:1038B00046A740E05DE261E371E040AB51AB62AB33
:1038C00073AB14AA15AA44ED52E057AB46AB30E5F2
:1038D00030AF21AF22AF23AF14AE15AE16AE2AE043
:1038E00030E03093150320931403109217031092C5
:1038F0001603109219031092180323E531E0348F58
:10390000238F20E130E030934606209345062DE0DA
:1039100030E0309344062093430610923C06109208
:103920003A061092420610924106109248061092F2
:10393000470610924A061092490690934C068093CF
:103940004B0690934E0680934D060895789484B567
:10395000826084BD84B5816084BD85B5826085BD8B
:1039600085B5816085BD80916E00816080936E0019
:10397000109281008091810082608093810080910B
:1039800081008160809381008091800081608093BC
:1039900080008091B10084608093B1008091B0007C
:1039A00081608093B000809191008260809391004B
:1039B000809191008160809391008091900081605E
:1039C000809390008091A10082608093A1008091FB
:1039D000A10081608093A1008091A000816080930C
:1039E000A00080917A00846080937A0080917A00B0
:1039F000826080937A0080917A008E7F80937A0033
:103A000080917A00806880937A001092C10088E9E2
:103A1000809364008DE38093650061E081E10E9402
:103A2000A4091092B6001092B2001092B000109249
:103A3000B10080E28093B60092E09093B00097E0EE
:103A40009093B1008093B3008091B6008F7121F004
:103A500080E00E942313F8CF87E087BB82E0809349
:103A6000700085E393E190931703809316031092FF
:103A700019031092180384ED92E090930C03809345
:103A80000B0380E580930D0381E080930E0340E0FB
:103A900050E0BA0180EF92E00E944D1110923A0678
:103AA0001092420610924106109248061092470664
:103AB00010924A061092490688EC90E090934C06CA
:103AC00080934B068091DB029091DC0290934E062E
:103AD00080934D0627E9B22E3EE4932E412C40E31D
:103AE000542E41E1642E712C58E2252E312CCCE36A
:103AF000D0E0B0927A0090927C0080E00E94231384
:103B000080917A0086FDF9CF80E00E942313809196
:103B10007A0086FDF9CF8091780090E0B0E0A0E0D7
:103B20008093330290933402A0933502B09336020F
:103B30002091790040913302509134026091350216
:103B40007091360230E0322F2227C901330FAA0BC1
:103B5000BB0B842B952BA62BB72B80933302909312
:103B60003402A0933502B093360220913302309193
:103B700034024091350250913602C301B2010E94D5
:103B8000AD1F20933302309334024093350250939B
:103B9000360210927A0080912F0290913002A0910B
:103BA0003102B091320240910001509101016091C7
:103BB000020170910301841B950BA60BB70B4E9766
:103BC000A105B10508F43CC1809133029091340203
:103BD000A0913502B0913602893B9B40A105B10509
:103BE0000CF42EC161E081E10E94760960E085ED70
:103BF00092E00E948A0A8091EE029091EF02892B56
:103C000049F48091E3029091E40206969093E402D5
:103C10008093E3028BE79FE09093EF028093EE02A4
:103C20001092E8021092E7021092E6021092E5026A
:103C300010923A06109248061092470610924A06D1
:103C40001092490688EC90E090934C0680934B06C6
:103C50008091DB029091DC0290934E0680934D069A
:103C60006FEF7FEF85ED92E00E94FE121092420608
:103C70001092410610923B066FEF7FEF85ED92E0C8
:103C80000E94FE121092E2021092E10284E190E0A2
:103C90009093E4028093E30264E071E085ED92E0AA
:103CA0000E949F131092E2021092E1023092E4020D
:103CB0002092E302C0903302D0903402E0903502AB
:103CC000F09036022AE0B701A601F7FE0DC06DE2C2
:103CD00085ED92E00E94C40C44275527BA014C1987
:103CE0005D096E097F092AE085ED92E00E94AE131E
:103CF0001092E2021092E102D093E402C093E30238
:103D000040912F0250913002609131027091320245
:103D10002AE085ED92E00E94AE1340914106509159
:103D200042068091450690914606489F8001499F32
:103D3000100D589F100D112420913A06222309F4EA
:103D40009EC0209143063091440621503109800FD6
:103D5000911F4217530724F08091DB029091DC02FF
:103D6000C0904906D0904A060C0D1D1D20914D06AD
:103D700030914E068C0D9D1DC20ED31E8C159D05D7
:103D800008F46C010C151D05B0F4C01AD10AE090BE
:103D90004B06F0904C0620914706309148061F9242
:103DA000812CA12C4AEA54E06AE173E080EF92E0B2
:103DB0000E9447170F90809141069091420601960C
:103DC0009093420680934106209143063091440629
:103DD0008217930709F04CC01092420610924106D8
:103DE00080913B06811114C000914D0610914E0642
:103DF00020914B0630914C064091490650914A065D
:103E0000609147067091480680EF92E00E9453153A
:103E100080EF92E00E94671960E081E10E947609DC
:103E200080912F0290913002A0913102B091320224
:103E30008093000190930101A0930201B0930301CC
:103E40008091330290913402A0913502B0913602F4
:103E500061E0853E9C40A105B1050CF460E081E184
:103E60000E94760986E00E9423130E94F00841CE4A
:103E70006FEF7FEF85ED92E00E94FE12FDCEC090C5
:103E8000DB02D090DC02C01AD10A8C159D0508F423
:103E90006C011F92812CA12C88ECE82EF12C30E0D3
:103EA00020E04AEA54E06AE173E080EF92E00E9489
:103EB00047178091410690914206019690934206E1
:103EC000809341060F90209143063091440682175B
:103ED000930771F6109242061092410680EF92E02D
:103EE0000E94BC1480EF92E00E944C1991CF97FB86
:103EF000072E16F4009407D077FD09D00E94D21F38
:103F000007FC05D03EF4909581959F4F08957095DC
:103F100061957F4F0895A1E21A2EAA1BBB1BFD01DC
:103F20000DC0AA1FBB1FEE1FFF1FA217B307E40798
:103F3000F50720F0A21BB30BE40BF50B661F771FF0
:103F4000881F991F1A9469F76095709580959095D0
:103F50009B01AC01BD01CF010895052E97FB1EF416
:103F600000940E94C41F57FD07D00E948B1F07FCBE
:103F700003D04EF40C94C41F509540953095219574
:103F80003F4F4F4F5F4F0895909580957095619585
:103F90007F4F8F4F9F4F0895EE0FFF1F0590F491B5
:103FA000E02D0994AA1BBB1B51E107C0AA1FBB1F30
:103FB000A617B70710F0A61BB70B881F991F5A95B5
:103FC000A9F780959095BC01CD01089581E090E01E
:0A3FD000F8940C94EB1FF894FFCF57
:103FDA001E00000048656C6C6F20576F726C64217C
:103FEA0000000000008308ED071A08D0084B0829D2
:103FFA00083D0800000000C40CED079A1340131690
:10400A00125F0A690F410F5D0F510F700F5F0A8A25
:10401A000A890A080FCF0E8A0EFE12F50D960D00B8
:10402A000000004D1166100F19D418B1187713BC8F
:10403A0015931377134113D3145315651967194050
:10404A0013427573792054696D656F757421000D7B
:10405A000A00203A20005F5570646174655F506100
:10406A007274005F5570646174655F46756C6C00AC
:10407A005F506F7765724F6E005F506F7765724F52
:04408A006666000066
:00000001FF
