:100000000C9490000C94A2000C94A2000C94A200FA
:100010000C94A2000C94A2000C94A5010C947601FF
:100020000C94A2000C94A2000C94A2000C94A200C8
:100030000C94A2000C94A2000C94A2000C94A200B8
:100040000C942A010C94A2000C94A2000C94A2001F
:100050000C94A2000C949B010C94A2000C94A2009E
:100060000C94A2000C94A2000C9474010C947401E2
:100070000C9474010C9474010C9474010C9474012C
:100080000C9474010C9474010C9474010C9474011C
:100090000C9474010C9474010C9474010C9474010C
:1000A0000C9474010C9474010C9474010C947401FC
:1000B0000C94740100000000250028002B002E0085
:1000C00000000000240027002A002D00000000008E
:1000D0002300260029002C00040404040404040462
:1000E00002020202020203030303030305050505DE
:1000F00001020408102040800102040810200102BF
:100100000408102004080102090C0A08000201007A
:1001100000030407000000000000000000000000D1
:1001200011241FBECFEFD8E0DEBFCDBF21E0A0E09D
:10013000B1E001C01D92A131B207E1F70E94AF0109
:100140000C944D030C94000081508D3008F03DC09C
:10015000E82FF0E0E255FF4F0C942503C500C900DD
:10016000BB00C100E500E500CC00D200D600DC00F9
:10017000E500E000E600809180008F7780938000AA
:100180000895809180008F7DF9CF84B58F7784BDED
:10019000089584B58F7DFBCF8091B0008F778093D9
:1001A000B00008958091B0008F7DF9CF80919000CC
:1001B0008F77809390000895809190008F7DF9CF84
:1001C0008091A0008F778093A00008958091A00077
:1001D0008F7DF9CF1F93CF93DF93282F30E0F90164
:1001E000E85FFE4F8491F901E051FF4FD491F9018E
:1001F000E852FF4FC491CC23A9F0162F81110E9421
:10020000A400EC2FF0E0EE0FFF1FEC54FF4FA59180
:10021000B4918FB7F894EC91111108C0D095DE23FA
:10022000DC938FBFDF91CF911F910895DE2BF8CF24
:1002300093B7917F892B83BF83B7816083BF83B7D7
:10024000816083BF889583B78E7F83BF83B78E7F9E
:1002500083BF08951F920F920FB60F9211242F9310
:100260003F938F939F93AF93BF9380910D01909194
:100270000E01A0910F01B091100130910C0126E008
:10028000230F2D3758F50296A11DB11D20930C01A7
:1002900080930D0190930E01A0930F01B093100174
:1002A0008091080190910901A0910A01B0910B0180
:1002B0000196A11DB11D8093080190930901A0939F
:1002C0000A01B0930B01BF91AF919F918F913F9124
:1002D0002F910F900FBE0F901F90189529E8230FB4
:1002E0000396A11DB11DD2CF0C94A2001F920F92B4
:1002F0000FB60F9211248F939F93AF93BF9380916A
:10030000000190910101A0910201B09103010196B9
:10031000A11DB11D8093000190930101A0930201E2
:10032000B0930301BF91AF919F918F910F900FBE3A
:100330000F901F9018951F920F920FB60F921124D5
:100340000F900FBE0F901F9018951F920F920FB62F
:100350000F9211240F900FBE0F901F901895789454
:1003600084B5826084BD84B5816084BD85B58260BA
:1003700085BD85B5816085BD80916E00816080936B
:100380006E001092810080918100826080938100D4
:1003900080918100816080938100809180008160E4
:1003A000809380008091B10084608093B10080913F
:1003B000B00081608093B000809191008260809352
:1003C00091008091910081608093910080919000D4
:1003D0008160809390008091A10082608093A10051
:1003E0008091A10081608093A1008091A000816034
:1003F0008093A00080917A00846080937A0080913D
:100400007A00826080937A0080917A008E7F809358
:100410007A0080917A00806880937A001092C100FF
:1004200088E9809364008DE380936500C1E0D1E0AA
:10043000FE01249109EE10E0F8018491882399F0DF
:1004400090E0880F991FFC01E054FF4FA591B491F3
:10045000FC01EC54FF4F859194918FB7F8949C91D7
:10046000292B2C938FBF1092B6001092B2001092DD
:10047000B0001092B10080E28093B60092E09093B9
:10048000B00097E09093B1008093B3008091B600E4
:100490008F7121F080E00E941801F8CF87E087BBC0
:1004A00082E08093700037E9E32E4EE4D42E412C95
:1004B00050E3552E51E1652E712C69E6C62E79E187
:1004C000872E71E0972EE0E0AE2EE0E0BE2EE092A7
:1004D0007A00D0927C0080E00E94180180917A001E
:1004E00086FDF9CF80E00E94180180917A0086FD98
:1004F000F9CF8091780090E0B0E0A0E08093040113
:1005000090930501A0930601B093070180917900B3
:10051000409104015091050160910601709107011D
:1005200090E0982F8827092E000CAA0BBB0B842B78
:10053000952BA62BB72B8093040190930501A093D4
:100540000601B0930701209104013091050140910B
:10055000060150910701C301B2010E9406032093D6
:100560000401309305014093060150930701109256
:100570007A00F894A89514BE8091600088618093F9
:100580006000C09260007894809104019091050110
:10059000A0910601B091070160E088329A40A10560
:1005A000B105FCF0F4018491FE01F490F80134905F
:1005B00070E060E0332099F081110E94A400E32DE7
:1005C000F0E0EE0FFF1FE453FF4FA591B4918C9123
:1005D000F82291E080E009F490E0692F782FF1E0B3
:1005E0006F2781E10E94EA0086E00E941801809155
:1005F000040190910501A0910601B0910701A11499
:10060000B10409F464CF0E94000061CF052E97FB6E
:100610001EF400940E941D0357FD07D00E942B0377
:1006200007FC03D04EF40C941D0350954095309573
:1006300021953F4F4F4F5F4F08959095809570954E
:1006400061957F4F8F4F9F4F0895EE0FFF1F0590CD
:10065000F491E02D0994A1E21A2EAA1BBB1BFD0107
:100660000DC0AA1FBB1FEE1FFF1FA217B307E40791
:10067000F50720F0A21BB30BE40BF50B661F771FE9
:10068000881F991F1A9469F76095709580959095C9
:0E0690009B01AC01BD01CF010895F894FFCF8E
:00000001FF
