:100000000C945A000C946C000C946C000C946C00D2
:100010000C946C000C946C000C946C000C946C00B0
:100020000C946C000C946C000C946C000C946C00A0
:100030000C946C000C946C000C946C000C946C0090
:100040000C94C5000C946C000C946C000C946C0027
:100050000C946C000C946C000C946C000C946C0070
:100060000C946C000C946C000C940F010C940F0118
:100070000C940F010C940F010C940F010C940F01C0
:100080000C940F010C940F010C940F010C940F01B0
:100090000C940F010C940F010C940F010C940F01A0
:1000A0000C940F010C940F010C940F010C940F0190
:1000B0000C940F0111241FBECFEFD8E0DEBFCDBFDF
:1000C00021E0A0E0B1E001C01D92A930B207E1F744
:1000D0000E9411010C9401020C9400003FB7F894A7
:1000E0008091050190910601A0910701B09108014E
:1000F00026B5A89B05C02F3F19F00196A11DB11D83
:100100003FBFBA2FA92F982F8827BC01CD01620FBE
:10011000711D811D911D43E0660F771F881F991F78
:100120004A95D1F708958F929F92AF92BF92CF9246
:10013000DF92EF92FF924B015C010E946E006B0117
:100140007C010E946E006C197D098E099F09683E32
:10015000734081059105A8F321E0821A9108A10856
:10016000B10888EEC80E83E0D81EE11CF11C811492
:100170009104A104B10429F7FF90EF90DF90CF9094
:10018000BF90AF909F908F9008951F920F920FB6DF
:100190000F9211242F933F938F939F93AF93BF930D
:1001A0008091010190910201A0910301B09104019D
:1001B0003091000126E0230F2D3758F50296A11D3E
:1001C000B11D209300018093010190930201A0933F
:1001D0000301B09304018091050190910601A09163
:1001E0000701B09108010196A11DB11D8093050181
:1001F00090930601A0930701B0930801BF91AF91BE
:100200009F918F913F912F910F900FBE0F901F9054
:10021000189529E8230F0396A11DB11DD2CF0C9488
:100220006C00789484B5826084BD84B5816084BD9F
:1002300085B5826085BD85B5816085BD80916E0084
:10024000816080936E0010928100809181008260B5
:1002500080938100809181008160809381008091F2
:1002600080008160809380008091B10084608093E1
:10027000B1008091B00081608093B00080919100C6
:1002800082608093910080919100816080939100C1
:10029000809190008160809390008091A1008260A5
:1002A0008093A1008091A10081608093A100809142
:1002B000A00081608093A00080917A008460809388
:1002C0007A0080917A00826080937A0080917A002F
:1002D0008E7F80937A0080917A00806880937A0084
:1002E0001092C1003B9A1EE4C12C20E3D22E21E1E2
:1002F000E22EF12CC0E0D0E010937C0061E070E0D1
:1003000080E090E00E94930080917A008064809366
:100310007A0080917A0086FDFCCF80917800209150
:10032000790030E0322F2227032E000C440B550BAE
:10033000282BC701B6010E94C001293B3B40410563
:10034000510564F0439A64E670E080E090E00E941A
:100350009300209789F20E940000CECF439883B784
:10036000817F83BF83B7816083BF83B7816083BF91
:10037000889583B78E7F83BF83B78E7F83BFE9CF96
:10038000052E97FB1EF400940E94D70157FD07D05D
:100390000E94DF0107FC03D04EF40C94D701509566
:1003A0004095309521953F4F4F4F5F4F0895909561
:1003B0008095709561957F4F8F4F9F4F0895A1E273
:1003C0001A2EAA1BBB1BFD010DC0AA1FBB1FEE1FCF
:1003D000FF1FA217B307E407F50720F0A21BB30B1A
:1003E000E40BF50B661F771F881F991F1A9469F796
:1003F00060957095809590959B01AC01BD01CF01F2
:060400000895F894FFCFFF
:00000001FF
